:020000040800F2
:100000007805002045010008D90B0008910A000876
:10001000D50B0008B50700087317000800000000A2
:10002000000000000000000000000000650D000856
:10003000B9070008000000004D0C0008790E000808
:100040005F0100085F0100085F0100085F01000810
:100050005F0100085F0100085F0100085F01000800
:100060005F0100085F0100085F0100085F010008F0
:100070005F0100085F0100085F0100085F010008E0
:100080005F0100085F0100085F0100085F010008D0
:100090005F0100085F0100085F0100085F010008C0
:1000A0005F0100083D0F00085F0100085F010008C4
:1000B0002D110008C9110008691200085F0100082D
:1000C0005F0100085F0100085F0100085F01000890
:1000D0005F0100085F010008C11400085F0100080B
:1000E0005F0100085F0100085F0100085F01000870
:1000F0005F0100085F0100085F0100085F01000860
:100100005F0100085F0100085F0100085F0100084F
:100110005F0100085F0100085F0100085F0100083F
:100120005F0100085F0100085F0100085F0100082F
:10013000DFF80CD000F02CFB00480047291B00081A
:10014000780500200648804706480047FEE7FEE79E
:10015000FEE7FEE7FEE7FEE7FEE7FEE7FEE7FEE777
:100160007D0E000831010008F0B480EA0102D40FCE
:100170004200B2EB410F02D20246084611464A0045
:1001800042D0C30DDDB2C1F3C752AD1A202D35DA0E
:10019000C1F3160141F4000204B15242C5F1200638
:1001A00002FA06F12A411044B3EBD05F23D0C4B168
:1001B000012DA0EBC35009DCF0BC4FF0004202EA75
:1001C000C352DBB200F5000000F056BA400000F167
:1001D000807000EBC350A0F1807040EAD1704900FC
:1001E00009E0490841EAC071A0EBC35000F50000E6
:1001F000400800EBC350F0BC00F035BA6142012268
:1002000002EB4101001BF6E7F0BC704781F00041B2
:10021000AAE780F00040A7E780EA010210B502F0EB
:100220000043400022D04A001FD0010E01EB1261B2
:10023000C0F35600C2F3560240F4000042F400023C
:10024000A0FB022000047F39140400D0401C50EAB7
:10025000124001D44000491EC2B20C0604EBD0107B
:10026000401C4008802A02D003E0002010BD20F08E
:100270000100002900DA0020184310BD2DE9FE4FCF
:10028000804681EA0300C00F0C46009021F0004137
:1002900023F00045B8EB0200A94105D240462146B3
:1002A00090461C460B46024623F00040104347D0C0
:1002B000270DC7F30A00C3F30A510290401A0190B8
:1002C00040286BDAC3F3130040F4801B0098924679
:1002D00020B10023D2EB030A63EB0B0B01985946C4
:1002E000C0F14002504600F08DF906460D465046DA
:1002F0005946019A00F0A5F910EB0800614100246D
:1003000087EA115284EAE7731A4340D0009A62B335
:10031000019A012A4FEA075215DC001B61EB02012A
:100320004FF0004202EA0752CDE90042001C41F5BD
:10033000801132462B4600F0DCF903B0BDE8F08FA7
:1003400040462146F9E7001B61EB0201001C41F524
:10035000801300185B412018A2F5001747EB03013A
:1003600040EAD570B6196D4111E06D084FEA3606C6
:1003700045EAC0754FEA0752001B61EB0201001C01
:1003800041F5801149084FEA3000001951413246C9
:100390002B4603B0BDE8F04F00F09CB90098012255
:1003A00040000023D0EB020263EBE073009821468B
:1003B0004FEAE074B8EB000061EB0401E9E783F079
:1003C00000435BE781F0004158E72DE9F04D81EAF9
:1003D000030404F0004B21F0004514464FF0000ADE
:1003E00023F0004150EA050220D054EA01021DD05A
:1003F000C5F30A570246C5F31303C1F31300C1F353
:100400000A5640F4801543F48013A7EB0608101B2E
:10041000D64608F2FD3873EB050002D308F1010857
:1004200001E092185B41B8F1000F03DA00200146A9
:10043000BDE8F08D00204FF48011064684460EE0A2
:10044000171B73EB050705D3121B63EB050306436C
:100450004CEA010C49084FEA300092185B4150EA1F
:100460000107EDD152EA030012D082EA040083EAC8
:100470000501084305D0101BAB4106D20122002321
:1004800006E000224FF0004302E06FF0010253103B
:100490001AEB06004CEB085110EB0A0041EB0B0184
:1004A000BDE8F04D00F016B9C10F80EAE0700844D5
:1004B000CA079623002100F0DFB80EB5C10F80EA0D
:1004C000E0700844CA07002140F233438DE80E0073
:1004D0000A460B4600F00DF903B000BD20F00040C5
:1004E000C10DC0F3160040F400007F2901DA00209E
:1004F0007047962903DCC1F19601C84070479639D0
:1005000088407047C1F30A5210B5C1F3130140F29D
:10051000FF3341F480119A4201DA002010BD40F20D
:1005200033439A42A2F2334203DC524200F079F89C
:1005300010BD904010BD00F0004230F000400AD0E5
:10054000C10D01F56071C0F3160042EA0151C20805
:1005500040071143704700200146704730B5041E24
:1005600071F1000404DB4FF00044404264EB0101F0
:10057000141E73F1000405DB1C464FF00043524289
:1005800063EB0403994208BF904230BD01F0004381
:1005900030B421F0004150EA010206D00A0DA2F564
:1005A0006072C1F31301002A02DC30BC00207047E6
:1005B000440F44EAC104C100E01830BC00EBC25053
:1005C00000F051B8002801DBC0F10040002901DB38
:1005D000C1F100418142704730B50B460146002011
:1005E0002022012409E021FA02F59D4205D303FAF5
:1005F00002F5491B04FA02F52844151EA2F1010276
:10060000F1DC30BD202A04DB203A00FA02F10020A0
:1006100070479140C2F1200320FA03F31943904040
:100620007047202A04DB203A21FA02F000217047AB
:1006300021FA02F3D040C2F120029140084319464A
:100640007047202A06DBCB17203A41FA02F043EA32
:10065000E07306E041FA02F3D040C2F1200291407B
:100660000843194670470029A8BF7047401C49003D
:1006700008BF20F00100704710B4B0FA80FC00FA07
:100680000CF050EA010404BF10BC704749B1CCF132
:10069000200421FA04F411FA0CF118BF01212143BE
:1006A0000843A3EB0C01CB1D4FEA00614FEA102079
:1006B00042BF002010BC704700EBC350104400291B
:1006C000A4BF10BC7047401C490008BF20F00100C7
:1006D00010BC704710B5141E73F1000408DA401CFA
:1006E00041F1000192185B411A4301D120F0010051
:1006F00010BD2DE9F04D92469B4611B1B1FA81F241
:1007000002E0B0FA80F220329046FFF77BFF044609
:100710000F4640EA0A0041EA0B0153465A46084395
:1007200013D0114653EA010019D0C8F140025046D7
:10073000FFF777FF05460E46504659464246FFF7FB
:1007400061FF084305D0012004E020463946BDE89A
:10075000F08D0020054346EAE0762C4337430A98A3
:100760006305E40AA0EB08000022FD0A44EA4754AE
:100770000A3002D500200146E9E701051019694158
:10078000DDE9084500196941BDE8F04DA2E7000028
:10079000064C074D06E0E06840F0010394E80700CE
:1007A00098471034AC42F6D3FFF7C6FC4824000843
:1007B0006824000800BFFEE770472DE9F0410246BB
:1007C00000250026002000230024002791F803C004
:1007D0000CF00F0591F803C00CF0100CBCF1000FE9
:1007E00003D091F802C04CEA050591F800C0BCF1B5
:1007F000000F31D0146800202BE04FF0010C0CFAF0
:1008000000F3B1F800C00CEA03069E4220D1830039
:100810004FF00F0C0CFA03F7BC4305FA03FC4CEA4B
:10082000040491F803C0BCF1280F06D14FF0010C6D
:100830000CFA00FCC2F814C00AE091F803C0BCF145
:10084000480F05D14FF0010C0CFA00FCC2F810C0A3
:10085000401C0828D1D31460B1F800C0BCF1FF0FD0
:1008600034DD546800202EE000F1080C4FF0010840
:1008700008FA0CF3B1F800C00CEA03069E4221D13D
:1008800083004FF00F0C0CFA03F7BC4305FA03FC8E
:100890004CEA040491F803C0BCF1280F05D100F123
:1008A000080C08FA0CF8C2F8148091F803C0BCF1E7
:1008B000480F07D100F1080C4FF0010808FA0CF8B6
:1008C000C2F81080401C0828CED35460BDE8F081E7
:1008D000416170470161704710B50024002000F0AD
:1008E00015F93A48006838B9052001F04BF8374847
:1008F000006860BBE4B22CE03448001D006848B9D1
:10090000052001F03FF83148001D0068F8B9201DAE
:10091000C4B21EE02D480830006850B9052001F02F
:1009200031F82A480830006888B904F10800C4B2D8
:100930000FE026480C30006850B9052001F022F87D
:1009400022480C30006810B904F10C00C4B200E079
:100950000024012000F0DAF81D48006840B90520A5
:1009600001F010F81A48006858BB601CC4B22AE0B5
:100970001748001D006848B9052001F003F8144825
:10098000001D0068E8B9A01CC4B21CE01048083083
:10099000006848B9052000F0F5FF0D4808300068F0
:1009A00078B9E01CC4B20EE009480C30006848B9C0
:1009B000052000F0E7FF06480C30006808B9201D4C
:1009C000C4B200E00024204610BD00003081214266
:1009D000200121422DE9F05F8246CAEB4A10FFF761
:1009E0006CFD804600220A4BFFF7EFFC0646002212
:1009F000084BFFF7E7FC0446FFF784FD1FFA80FB76
:100A000059464FF0804000F006FDBDE8F09F000021
:100A100000C072400068A0402DE9F05F82460AEBFA
:100A20004A01C1EB4A10FFF748FD80460022094BFE
:100A3000FFF7CBFC06460022074BFFF7C3FC04463A
:100A4000FFF760FD1FFA80FB5946044800F0E3FC05
:100A5000BDE8F09F00C0724000009E4000040040CE
:100A600070B50446002510E0605D68B1615D07481F
:100A700000F07BFE00BF8021044800F0A9FD0128A2
:100A8000F9D1681CC5B200E070BDEDE7004400403C
:100A900000BFFEE708B501211C2000F0E9F84FF483
:100AA0007060ADF8000003208DF8020010208DF872
:100AB000030069460F48FFF780FE4FF47040ADF821
:100AC000000069460C48FFF778FE01200B490860DA
:100AD0000B49C1F8B401094908310860091D0860D3
:100AE00008490860091D0860091D08600649C1F829
:100AF000AC0108BD00080140000C0140B08121425A
:100B000000802142A00121420000214238B5044664
:100B100001211C2000F0ACF814B1012C4CD125E0CF
:100B20004FF47040ADF8000048208DF8030069468E
:100B30002248FFF742FE4FF47060ADF8000003203A
:100B40008DF8020010208DF8030069461C48FFF75D
:100B500034FE00201B4908601B49C1F8A401194953
:100B6000083108601849C1F8AC0125E04FF4704025
:100B7000ADF8000003208DF8020010208DF803006E
:100B800069460E48FFF719FE4FF47060ADF800009B
:100B900048208DF8030069460948FFF70EFE002043
:100BA0000A4908600A49C1F8B401084908310860D7
:100BB0000749C1F8BC0100BF00BF38BD000C0140AF
:100BC00000080140A001214200002142B0812142E1
:100BD0000080214200BFFEE77047000070B5002191
:100BE00000230F22C47804B3154C246804F4E06495
:100BF000C4F5E064210AC1F10403CA40447804FA50
:100C000003F184781440214309010E4C0678A15564
:100C1000047804F01F050124AC4005786D11AD0087
:100C200005F1E025C5F8004109E0047804F01F054E
:100C30000124AC40044D0678761145F8264070BD7D
:100C40000CED00E000E400E080E100E0704700000F
:100C500029B1064AD2690243044BDA6104E0034A2F
:100C6000D2698243014BDA617047000000100240F4
:100C700029B1064A92690243044B9A6104E0034A8F
:100C800092698243014B9A61704700000010024054
:100C900030B500210022002400232D4D6D6805F0A1
:100CA0000C0121B1042905D0082923D105E0294DE3
:100CB000056022E0274D05601FE0254D6D6805F4B5
:100CC0007012234D6D6805F48034022505EB9242C5
:100CD0001CB9214D554305600BE01D4D6D6805F4B1
:100CE00000351DB11C4D5543056002E0194D5543BB
:100CF000056002E0174D056000BF00BF144D6D6830
:100D000005F0F0010909154D6B5C0568DD40456093
:100D10000F4D6D6805F4E061090A104D6B5C456884
:100D2000DD4085600A4D6D6805F46051C90A0B4DC0
:100D30006B5C4568DD40C560054D6D6805F440415C
:100D4000890B074D6B5CC568B5FBF3F5056130BDDC
:100D50000010024000127A0000093D0056000020F9
:100D600066000020704710B500F002F810BD0000CA
:100D70000CB50020019000903348006840F48030AA
:100D80003149086000BF3048006800F4003000902E
:100D90000198401C0190009818B90198B0F5A06F17
:100DA000F1D12948006800F4003010B10120009012
:100DB00001E0002000900098012843D123480068FA
:100DC00040F01000214908600846006820F0030048
:100DD00008600846006840F0020008601A48406851
:100DE000194948600846406848600846406840F431
:100DF000806048600846406820F47C1048600846DF
:100E0000406840F4E81048600846006840F0807090
:100E1000086000BF0C48006800F000700028F9D09E
:100E20000948406820F003000749486008464068C8
:100E300040F00200486000BF0348406800F00C002A
:100E40000828F9D10CBD000000100240002002402B
:100E5000042808D14FF0E021096941F004014FF066
:100E6000E022116107E04FF0E021096921F004015F
:100E70004FF0E022116170477047000010B5134831
:100E8000006840F0010011490860084640681049B8
:100E900008400E494860084600680E4908400B4962
:100EA00008600846006820F4802008600846406812
:100EB00020F4FE0048604FF41F008860FFF753FFE6
:100EC0004FF000600449086010BD000000100240AF
:100ED0000000FFF8FFFFF6FE08ED00E07FB50546D5
:100EE0000C460121C802FFF7C3FEADF80850ADF86B
:100EF00004400020ADF80A00ADF8060001A90E4834
:100F000000F08CFA012211460B4800F01BFA192060
:100F10008DF8000001208DF8010003208DF80200FB
:100F200001208DF803006846FFF758FE01210248B2
:100F300000F0EBF97FBD0000002C01402DE9F04FDF
:100F400089B00121684800F0ECF900287DD001212A
:100F5000654800F0D7F9654800686549086065484C
:100F60000068624908606448006864490968081AB2
:100F700063490968084450386049086008460068B9
:100F80006049096890FBF1F05A49086000205E4909
:100F900008700EE058495C480078401C51F8200069
:100FA000594A127841F8220057480078401C5649A7
:100FB000087054480068401E534909788842E9DCAB
:100FC0004F48006850384F490968491E4A4A42F85C
:100FD00021004848006803280CDA4648006810F1F0
:100FE000030F07DD4948006820B148480068401EEB
:100FF000464908603E480068FFF756FA05904448A5
:1010000001680598FFF708F9079038480068FFF76E
:101010004BFA03903E4801684FF08040FFF7FCF820
:1010200001903C4801680198FFF79EF802900399EF
:10103000FFF7F2F805902F480068FFF735FA0390A4
:10104000354801683348006800E04AE0FFF78CF853
:1010500001902F4801680198FFF786F802900399E4
:10106000FFF7DAF804900599FFF7D0F80690079992
:10107000FFF77AF80890FFF75EFA80460022274BC8
:10108000FFF7A3F904460D4625480068FFF753FA19
:10109000064622462B46FFF7F1F88246FFF776FA1E
:1010A0001F49086008460068FFF745FA0446002219
:1010B0001C4BFFF753FA03D21B481949086008E09C
:1010C000002117480068FFF77DFA02D2002014497A
:1010D000086013480068FFF701FA84B22046FFF762
:1010E00079FC09B0BDE8F08F002C014030000020F1
:1010F000340000202C000020B80000200800002050
:1011000000000020240000202800002014000020FF
:1011100020000020180000201C0000200088C34090
:10112000440000200070B7400080BB4510B501218D
:10113000880700F0F6F818B10121880700F0E2F8FE
:1011400010BD000030B589B005460C4601210846A7
:10115000FFF77EFD01210520FFF78AFD0220ADF893
:10116000200018208DF8230003208DF8220008A904
:101170001448FFF722FBADF81850ADF814400020DA
:10118000ADF81A00ADF8160005A94FF0804000F048
:1011900045F96020ADF804000120ADF806000020FC
:1011A000ADF80C0001A94FF0804000F0D5F80821FF
:1011B000C80600F023F90121880700F0A6F809B05D
:1011C00030BD00000008014010B50121044800F0C6
:1011D000A8F818B10121024800F094F810BD0000F1
:1011E0000004004030B589B005460C4601210220BC
:1011F000FFF72EFD01210520FFF73AFD8020ADF815
:10120000200018208DF8230003208DF8220008A963
:101210001348FFF7D2FAADF81850ADF8144000208B
:10122000ADF81A00ADF8160005A90E4800F0F6F862
:101230006020ADF804000120ADF806000020ADF8F4
:101240000C0001A9074800F087F80821054800F0C4
:10125000D5F80121034800F058F809B030BD00006E
:10126000000801400004004010B501210A4800F0C8
:1012700058F880B10121084800F044F80748006898
:1012800020B920210648FFF723FB04E0034800684B
:10129000401E0249086010BD0008004010000020F8
:1012A000000801407FB505460C4601210420FFF7E8
:1012B000CFFCADF80850ADF804400020ADF80A00AE
:1012C000ADF8060001A90E4800F0A8F80122114669
:1012D0000B4800F037F81E208DF8000000208DF834
:1012E000010003208DF8020001208DF803006846FC
:1012F000FFF774FC0121024800F007F87FBD0000F1
:1013000000080040CA430282704721B1028842F0BF
:101310000102028004E002884FF6FE731A40028048
:10132000704730B50246002000230024158A05EAE4
:101330000103958905EA010413B10CB1012000E015
:10134000002030BD1AB183890B43838102E0838979
:101350008B4383817047000070B500240022002376
:10136000058C4FF6EF7635400584028C8388048B1C
:1013700048F6FF752C404FF6FF452C400D884FF680
:10138000FF7606EA05252C434FF6DF752A400D89C6
:1013900006EA05152A434D8806EA05152A43154D28
:1013A000A84202D0144DA8421DD14FF67F752A40A5
:1013B0004D894FF6FF7606EA05152A434FF6BF75AD
:1013C0002A408D8806EA05152A434FF6FF352B4043
:1013D0004FF2FF752B408D8906EA85052B43CD8999
:1013E00006EA85052B4383800483CD880587028424
:1013F00070BD0000002C0140003401400A4600216D
:10140000018B4FF2FF7319404FF6FF7303EA02237B
:10141000194301837047018770470000002202884A
:101420001D4B98420ED01D4B98420BD0B0F1804F0F
:1014300008D01B4B984205D01A4B984202D01A4B49
:10144000984204D14FF68F731A404B881A43174BBA
:10145000984207D0164B984204D04FF6FF431A40EB
:10146000CB881A4302808B8883850B8803850A4BBF
:1014700098420BD0094B984208D00E4B984205D0A9
:101480000D4B984202D00D4B984201D10B7A038646
:101490000123838270470000002C0140003401408A
:1014A0000004004000080040000C00400010004014
:1014B0000014004000400140004401400048014049
:1014C00010B540F22551344800F08FF8002862D062
:1014D000314800F045F9C4B25B2C02D101202F49FC
:1014E00008702E480078012855D15B2C53D05D2C14
:1014F00009D02B482B49097844542A480078401CCD
:101500002849087047E000202749088027490870CB
:1015100011E0234825490978405C30382249098880
:1015200001EB810100EB41001F4908801F48007852
:10153000401C1E4908701D4800780328E9DB1A4842
:1015400000881B49086000201749088004201749BB
:10155000087011E0124815490978405C303812498A
:10156000098801EB810100EB41000F4908800F4819
:101570000078401C0D4908700C4800780728E9DB0A
:10158000094800880B490860002004490870064992
:1015900008800449087010BD00440040500000203D
:1015A000580100205200002054000020510000206B
:1015B000000000200400002021B1828942F4005282
:1015C000828104E082894DF6FF731A408281704760
:1015D00002460020B1F5007F00D100BF13880B4008
:1015E0000BB1012000E00020704770B502460024D6
:1015F00000230025002040F66A16B14200D100BF4A
:10160000C1F3421501F01F03012606FA03F3012D71
:1016100002D19689334006E0022D02D1168A33406A
:1016200001E0968A33400C12012606FA04F416886B
:10163000344013B10CB1012000E0002070BDF0B5C2
:101640000346002400260025002040F66A17B94210
:1016500000D100BF1846C1F3421401F01F06012754
:1016600007FA06F5012C01D10C3004E0022C01D15F
:10167000103000E014301AB107682F43076002E011
:101680000768AF430760F0BD2DE9F04786B0054617
:101690000E460024A24600BFA1460027B08900B133
:1016A00000BF2F462C8A4CF6FF700440F08804439C
:1016B0002C82AC894EF6F3100440B088318908437F
:1016C000718908430443AC81AC8A4FF6FF40044063
:1016D000B0890443AC8201A8FFF7DAFA1F488742B9
:1016E00002D1DDF810A001E0DDF80CA0A88900F41B
:1016F000004040B10AEBCA0000EB0A103168490013
:10170000B0FBF1F807E00AEBCA0000EB0A10316801
:101710008900B0FBF1F86420B8FBF0F00401200967
:10172000642101FB1089A88900F4004040B13220F7
:1017300000EBC900B0FBF1F000F00700044308E043
:10174000322000EB09106421B0FBF1F000F00F0033
:1017500004432C8106B0BDE8F0870000003801404A
:1017600001468888C0F308007047C1F308028280F0
:10177000704700BFFEE700000FB4054B10B503A98A
:10178000044A029800F02CF810BC5DF814FB00002D
:10179000051A00084C0000200FB4084B10B504A92E
:1017A00002AA039800F01CF8044602A9002000F0E9
:1017B000C1F8204610BC5DF814FB00003519000884
:1017C00002E008C8121F08C1002AFAD1704770470A
:1017D000002001E001C1121F002AFBD17047000068
:1017E0002DE9FF4F89B09B460446002506E02528D9
:1017F0000BD05A460B999047641C6D1C207800282A
:10180000F5D10DB02846BDE8F08F0027B84601227B
:10181000474900E0074314F8013F203B02FA03F078
:101820000842F7D120782E2819D114F8010F47F07B
:1018300004072A280ED06FF02F022078A0F1300183
:1018400009290CD808EB880102EB410100EB0108E3
:10185000641CF2E70A98641C50F8048B0A90207804
:101860000028CED0642808D0692806D075281ED05C
:101870005A460B9990476D1C58E00A994FF00A0997
:1018800001C90A91002802DA40422D2102E03905FF
:1018900004D52B218DF82010012103E0F90704D095
:1018A0002021F7E78A4608AE0DE00021FAE70A9901
:1018B0004FF00A0901C90A91F7E74946FEF78CFE85
:1018C000303106F8011D0028F7D1ADEB060000F11C
:1018D0002009780701D44FF00108C84502DDA8EBC4
:1018E000090000E000208046002706E008A85A46CC
:1018F000C05D0B9990476D1C7F1C5745F6DB04E0DB
:1019000030205A460B9990476D1CB8F10001A8F1A0
:101910000108F5DC05E016F8010B5A460B999047D3
:101920006D1CB9F10001A9F10109F4DC641C65E743
:10193000092801000A68531C0B60107070470000F2
:1019400010B56FF00400FFF783FA0A4800680A49EF
:10195000B0FBF1F0094908700846007800EB40013F
:10196000C1EBC0104FF6FF7101EAC00004490880C6
:1019700010BD00006C00002000127A0080000020E2
:10198000820000200146114A12884A434FF0E023AA
:101990005A6100229A611A46126942F001021A61E4
:1019A00000BF4FF0E022106900F001021AB100F40C
:1019B0008032002AF5D04FF0E022126922F00102B5
:1019C0004FF0E0231A6100229A61704782000020E4
:1019D00008B501210420FFF74BF96020ADF80000A5
:1019E00010208DF8030003208DF80200694604489A
:1019F000FEF7E3FE60210248FEF76AFF08BD000023
:101A00000008014000BF054A128802F04002002A87
:101A1000F9D0C2B2014B1B1D1A8070470044004030
:101A20002DE9F04106460025002700BF5DE000BF1C
:101A3000FEF752FF0028FBD0FEF74EFF0446052CB0
:101A400003D0062C01D0072C02D1601EC4B20BE0DB
:101A5000092C03D00A2C01D00B2C02D1A01EC4B239
:101A600002E00E2C00D1002407EB870004EB4007B6
:101A7000BEB9032D0ADA05EB4500800000F15002E3
:101A800023461CA12148FFF787FE21E005EB450016
:101A9000800000F15C02234616A11C48FFF77CFE83
:101AA00016E0022D0ADA05EB4500800000F15C0229
:101AB000234617A11548FFF76FFE09E005EB450027
:101AC000800000F16802234611A11048FFF764FE70
:101AD0000E48FEF7C5FF6420FFF754FF00BFFEF776
:101AE000FBFE0028FBD1681CC5B2042D9FDB3846E5
:101AF000BDE8F081445333322825642C3231382C30
:101B0000272564272C31293B0D0A00008400002082
:101B1000445333322825642C3235322C2725642750
:101B20002C31293B0D0A00008CB04FF00009012731
:101B30000025A846FFF704FF472144F61F60FFF782
:101B400051FB472144F61F60FFF7FCFA00F0DCFB75
:101B5000FFF73EFFFEF79EFF40F6B830FEF73AFF74
:101B60000020FEF759FFB0E3FDA0FFF705FE4FF49C
:101B70007A70FFF707FF00BFFEF7AEFE0028FBD02C
:101B8000FEF7AAFE814600BFFEF7A6FE0028FBD1A5
:101B9000B9F1070F74D2DFE819F073000700910064
:101BA0005B0173001D039503F3A0FEF759FF64204A
:101BB000FFF7E8FE0020FFF733FF05460A20B5FBDC
:101BC000F0FA5246FCA109A8FFF7E6FD0A20B5FB92
:101BD000F0F100FB115A5246F7A106A8FFF7DCFD11
:101BE00000BFFEF779FE0028FBD0FEF775FE064623
:101BF00000BFFEF771FE0028FBD1102E5DD1EFA0D3
:101C0000FEF72EFF6420FFF7BDFEF2A0FEF728FFCF
:101C10006420FFF7B7FE40F6B830FEF7DBFE4FF466
:101C2000FA60FEF7F9FE2021F148FEF753FEF14875
:101C30000560472140F2E730FFF734FB00BFED4875
:101C400000680028FBD10021EB48FFF75EFBEBA00A
:101C5000FEF706FFF4A0FEF703FF09A8FEF700FF5A
:101C6000DAA0FEF7FDFEF4A0FEF7FAFEF8A0FEF7FC
:101C7000F7FE06A8FEF7F4FED4A0FEF7F1FE00E0A2
:101C800021E3F7A0FEF7ECFE6420FFF77BFE402186
:101C9000D748FEF71FFE6420FFF774FE4021D448AA
:101CA000FEF716FE4FF47A70FFF76CFE40F6B83080
:101CB000FEF790FE0020FEF7AFFE05E3F448FEF7C6
:101CC000CFFE6420FFF75EFE0020FFF7A9FE054669
:101CD0000A20B5FBF0FA5246B7A109A8FFF75CFD50
:101CE0000A20B5FBF0F100FB115A5246B2A106A83A
:101CF000FFF752FD00BFFEF7EFFD0028FBD0FEF717
:101D0000EBFD064600BFFEF7E7FD0028FBD1102ED5
:101D10007ED1E0A0FEF7A4FE6420FFF733FE012091
:101D2000FFF77EFE80466420B8FBF0FA5246A2A17F
:101D300003A8FFF731FD6420B8FBF0F100FB118A26
:101D400052469DA16846FFF727FD00BFFEF7C4FD80
:101D50000028FBD0FEF7C0FD064600BFFEF7BCFD25
:101D60000028FBD1102E72D1D0A0FEF779FE64209E
:101D7000FFF708FE1FFA88F0FEF72CFE4FF4FA601A
:101D8000FEF74AFE93A0FEF76BFE6420FFF7FAFD14
:101D900020219748FEF79EFD96480560472140F2B6
:101DA000E730FFF77FFA00BF924800680028FBD1B8
:101DB00000219148FFF7A9FAC2A0FEF751FE9AA0B0
:101DC000FEF74EFE09A8FEF74BFE80A0FEF748FE88
:101DD00099A0FEF745FE9EA0FEF742FE06A8FEF77C
:101DE0003FFE7AA0FEF73CFEC1A0FEF739FE03A835
:101DF000FEF736FE75A0FEF733FEC1A0FEF730FEFB
:101E0000C5A0FEF72DFE6846FEF72AFE6FA000E093
:101E10001DE0FEF725FEC448FEF722FE6420FFF712
:101E2000B1FD40217248FEF755FD6420FFF7AAFD81
:101E300040216F48FEF74CFD4FF47A70FFF7A2FD8A
:101E400040F6B830FEF7C6FD0020FEF7E5FD3BE2A8
:101E5000B6A0FFF791FC00BFFEF73EFD0028FBD0C7
:101E6000FEF73AFD064600BFFEF736FD0028FBD11F
:101E7000102E74D1B5A0FFF77FFC0020FEF7AAFD5D
:101E80000020FEF7C9FD6420FFF77CFD0024012738
:101E900042F21070B24908601BE0012F0ED104F12C
:101EA0003C0084B22046FEF795FD41F270708442FA
:101EB00000D100271420FFF765FD0AE0A4F13C00E3
:101EC00084B22046FEF786FD04B901271420FFF7EF
:101ED00059FDA448006840F2E7318842DDD004F59E
:101EE000FA70FEF7E1FAA0490860A0A0FFF744FCF1
:101EF00047216320FEF7F2FF09E0994802689F48F6
:101F000001689FA0FFF738FC6420FFF73BFD944871
:101F100000680028F1D100219B48FFF7F6F99BA04B
:101F2000FFF72AFC20213248FEF7D4FC002031497B
:101F3000086047216320FFF7B5F900BF2D4800680E
:101F40000028FBD100212C48FFF7DFF993A0FFF711
:101F500013FC40212648FEF7BDFC642028E138E14F
:101F6000434C532830293B50494328302C302C31E6
:101F7000293B0D0A00000000434C532830293B50F8
:101F8000494328302C302C32293B534343283336E5
:101F90002C3635353335293B534243283336293BDC
:101FA00044533332283131362C3231382C272E2706
:101FB0002C31293B0D0A00002564000044533332C4
:101FC000283230302C3231382C27A1CC272C312923
:101FD0003B0000004147494628302C34302C383033
:101FE0002C372C31342C31302C31293B0D0A000098
:101FF000000801401000002000080040434C532816
:1020000030293B50494328302C302C32293B534354
:10201000432833362C3635353335293B5342432854
:102020003336293B00000000445333322838302C2B
:102030003231382C270000004453333228313136F6
:102040002C3231382C272E272C31293B0000000060
:1020500044533332283132382C3231382C270000A7
:1020600044533332283230302C3231382C27A1CC33
:10207000272C31293B445334382834302C38302C29
:102080002746696E69736821272C31293B0D0A00A8
:10209000F423000844533332283230302C323138A4
:1020A0002C27A1CC272C31293B0D0A004453333275
:1020B000283230302C3235322C27A1CC272C312934
:1020C0003B0D0A00434C532830293B5049432830EC
:1020D0002C302C33293B5343432833362C363535AB
:1020E0003335293B534243283336293B0000000057
:1020F000445333322839322C3235322C2700000039
:1021000044533332283131362C3235322C272E27A6
:102110002C31293B0000000044533332283132383F
:102120002C3235322C270000AC230008C4A3CABDD2
:10213000332FB7A2BBD3310D0A0D0AB0B444D2BBC2
:10214000BCFCC6F4B6AF0D0A00000000D5FDD4DA21
:10215000CBD1D1B0C4BFB1EA2E2E2E0D0A000000A3
:10216000140000200000002044000020D5FDD4DA37
:10217000C3E9D7BC2E2E2E0D0A0000002C00002033
:1021800025642C25640D0A00002C0140D5FDD4DA0D
:10219000B3E4B5E72E2E2E0D0A000000B3E4B5E738
:1021A000CDEAB1CFA3ACB7A2C9E4A3A10D0A000048
:1021B000FFF7E8FB40214548FEF78AFB4FF47A70B1
:1021C000FFF7E0FB40F6B830FEF704FC0020FEF716
:1021D00023FC79E03EA0FFF7CFFA20213B48FEF731
:1021E00079FB40F29A2042490860472140F2E730EB
:1021F000FFF758F800BFFEF76FFB0028FBD0FEF793
:102200006BFB064600BFFEF767FB0028FBD1102ED4
:1022100057D1AFF2C800FFF7AFFA0020FEF7DAFBA4
:102220000020FEF7F9FB6420FFF7ACFB0624012732
:1022300045E0012F0DD1A01D84B22046FEF7CAFB58
:1022400041F27070844200D100270420FFF79AFB0E
:1022500007E0A01F84B22046FEF7BCFB0420FFF776
:1022600091FB24480068B42808DD22480068C8288B
:1022700004DA1F48006808B9012F0BD01D48006818
:1022800078281CDD1B4800688C2818DA184800687C
:10229000A8B9A7B918A0FFF76FFA40210B48FEF7BD
:1022A00019FB6420FFF76EFB40210848FEF710FB86
:1022B00000211448FFF729F801200D490860002C7F
:1022C000B7D101E000E000BF00BF4DE400080140CD
:1022D000C4A3CABD342FB7A2BBD3320D0A0D0AB0B6
:1022E000B444D2BBBCFCC6F4B6AF0D0A000000007B
:1022F0001000002000000020B7A2C9E4A3A10D0A2D
:10230000000000000008004000B587B0012148042B
:10231000FEF79EFC01210420FEF7AAFC0420ADF884
:10232000180003208DF81A0018208DF81B0006A94C
:102330001C48FEF742FA0820ADF8180004208DF87A
:102340001B0006A91748FEF738FA26208DF804006E
:1023500003208DF805008DF8060001208DF8070098
:1023600001A8FEF73BFC4FF4E13002900020ADF8ED
:102370000C00ADF80E00ADF81000ADF814000C2004
:10238000ADF8120002A90848FFF77EF9012240F2D9
:1023900025510548FFF753F901210348FFF70CF9D0
:1023A00007B000BD000801400044004044533332F0
:1023B000283230302C3231382C27A1CC272C31292F
:1023C0003B44533332283230302C3235322C27A163
:1023D000CC272C31293B445334382834302C383026
:1023E0002C2746696E69736821272C31293B0D0A19
:1023F00000000000434C532830293B50494328300B
:102400002C302C33293B5343432833362C36353577
:102410003335293B534243283336293B4453333227
:10242000283131362C3231382C272E272C31293BBC
:1024300044533332283131362C3235322C272E2773
:102440002C31293B0D0A0000682400080000002000
:1024500084000000C0170008EC240008840000205D
:10246000F4040000D0170008E7030000010000009A
:102470000000000000000000000000001027000025
:102480000000C842000020410000000014000000CD
:10249000000000000000000000000000000000003C
:1024A000000000000000000000000000000000002C
:1024B000000000000000000000000000000000001C
:1024C00000000102030401020304060708090204D4
:1024D0000608000000A24A040000000000000000FE
:0C24E000010203040607080900000000C8
:0400000508000131BD
:00000001FF
