:020000040800F2
:100000007805002045010008B909000839090008F1
:10001000B509000889070008FF1400080000000067
:10002000000000000000000000000000450B000878
:100030008D070008000000002D0A0008590C000878
:100040005F0100085F0100085F0100085F01000810
:100050005F0100085F0100085F0100085F01000800
:100060005F0100085F0100085F0100085F010008F0
:100070005F0100085F0100085F0100085F010008E0
:100080005F0100085F0100085F0100085F010008D0
:100090005F0100085F0100085F0100085F010008C0
:1000A0005F010008BD0C00085F0100085F01000847
:1000B000D90E0008750F0008151000085F01000830
:1000C0005F0100085F0100085F0100085F01000890
:1000D0005F0100085F0100086D1200086513000849
:1000E0005F0100085F0100085F0100085F01000870
:1000F0005F0100085F0100085F0100085F01000860
:100100005F0100085F0100085F0100085F0100084F
:100110005F0100085F0100085F0100085F0100083F
:100120005F0100085F0100085F0100085F0100082F
:10013000DFF80CD000F016FB0048004791150008CE
:10014000780500200648804706480047FEE7FEE79E
:10015000FEE7FEE7FEE7FEE7FEE7FEE7FEE7FEE777
:100160005D0C000831010008F0B480EA0102D40FF0
:100170004200B2EB410F02D20246084611464A0045
:1001800042D0C30DDDB2C1F3C752AD1A202D35DA0E
:10019000C1F3160141F4000204B15242C5F1200638
:1001A00002FA06F12A411044B3EBD05F23D0C4B168
:1001B000012DA0EBC35009DCF0BC4FF0004202EA75
:1001C000C352DBB200F5000000F040BA400000F17D
:1001D000807000EBC350A0F1807040EAD1704900FC
:1001E00009E0490841EAC071A0EBC35000F50000E6
:1001F000400800EBC350F0BC00F01FBA614201227E
:1002000002EB4101001BF6E7F0BC704781F00041B2
:10021000AAE780F00040A7E780EA010210B502F0EB
:100220000043400022D04A001FD0010E01EB1261B2
:10023000C0F35600C2F3560240F4000042F400023C
:10024000A0FB022000047F39140400D0401C50EAB7
:10025000124001D44000491EC2B20C0604EBD0107B
:10026000401C4008802A02D003E0002010BD20F08E
:100270000100002900DA0020184310BD2DE9FE4FCF
:10028000804681EA0300C00F0C46009021F0004137
:1002900023F00045B8EB0200A94105D240462146B3
:1002A00090461C460B46024623F00040104347D0C0
:1002B000270DC7F30A00C3F30A510290401A0190B8
:1002C00040286BDAC3F3130040F4801B0098924679
:1002D00020B10023D2EB030A63EB0B0B01985946C4
:1002E000C0F14002504600F077F906460D465046F0
:1002F0005946019A00F08FF910EB08006141002483
:1003000087EA115284EAE7731A4340D0009A62B335
:10031000019A012A4FEA075215DC001B61EB02012A
:100320004FF0004202EA0752CDE90042001C41F5BD
:10033000801132462B4600F0C6F903B0BDE8F08FBD
:1003400040462146F9E7001B61EB0201001C41F524
:10035000801300185B412018A2F5001747EB03013A
:1003600040EAD570B6196D4111E06D084FEA3606C6
:1003700045EAC0754FEA0752001B61EB0201001C01
:1003800041F5801149084FEA3000001951413246C9
:100390002B4603B0BDE8F04F00F086B9009801226B
:1003A00040000023D0EB020263EBE073009821468B
:1003B0004FEAE074B8EB000061EB0401E9E783F079
:1003C00000435BE781F0004158E72DE9F04D81EAF9
:1003D000030404F0004B21F0004514464FF0000ADE
:1003E00023F0004150EA050220D054EA01021DD05A
:1003F000C5F30A570246C5F31303C1F31300C1F353
:100400000A5640F4801543F48013A7EB0608101B2E
:10041000D64608F2FD3873EB050002D308F1010857
:1004200001E092185B41B8F1000F03DA00200146A9
:10043000BDE8F08D00204FF48011064684460EE0A2
:10044000171B73EB050705D3121B63EB050306436C
:100450004CEA010C49084FEA300092185B4150EA1F
:100460000107EDD152EA030012D082EA040083EAC8
:100470000501084305D0101BAB4106D20122002321
:1004800006E000224FF0004302E06FF0010253103B
:100490001AEB06004CEB085110EB0A0041EB0B0184
:1004A000BDE8F04D00F000B9C10F80EAE0700844EB
:1004B000CA079623002100F0C9B80EB5C10F80EA23
:1004C000E0700844CA07002140F233438DE80E0073
:1004D0000A460B4600F0F7F803B000BD20F00040DC
:1004E000C10DC0F3160040F400007F2901DA00209E
:1004F0007047962903DCC1F19601C84070479639D0
:1005000088407047C1F30A5210B5C1F3130140F29D
:10051000FF3341F480119A4201DA002010BD40F20D
:1005200033439A42A2F2334203DC524200F063F8B2
:1005300010BD904010BD00F0004230F000400AD0E5
:10054000C10D01F56071C0F3160042EA0151C20805
:1005500040071143704700200146704730B5041E24
:1005600071F1000404DB4FF00044404264EB0101F0
:10057000141E73F1000405DB1C464FF00043524289
:1005800063EB0403994208BF904230BD01F0004381
:1005900030B421F0004150EA010206D00A0DA2F564
:1005A0006072C1F31301002A02DC30BC00207047E6
:1005B000440F44EAC104C100E01830BC00EBC25053
:1005C00000F03BB8002801DBC0F10040002901DB4E
:1005D000C1F1004181427047202A04DB203A00FA31
:1005E00002F1002070479140C2F1200320FA03F38A
:1005F000194390407047202A04DB203A21FA02F088
:100600000021704721FA02F3D040C2F1200291404C
:10061000084319467047202A06DBCB17203A41FAD7
:1006200002F043EAE07306E041FA02F3D040C2F17F
:10063000200291400843194670470029A8BF70471F
:10064000401C490008BF20F00100704710B4B0FA08
:1006500080FC00FA0CF050EA010404BF10BC7047A3
:1006600049B1CCF1200421FA04F411FA0CF118BFBD
:10067000012121430843A3EB0C01CB1D4FEA00618C
:100680004FEA102042BF002010BC704700EBC3505F
:1006900010440029A4BF10BC7047401C490008BF8B
:1006A00020F0010010BC704710B5141E73F1000457
:1006B00008DA401C41F1000192185B411A4301D154
:1006C00020F0010010BD2DE9F04D92469B4611B17E
:1006D000B1FA81F202E0B0FA80F220329046FFF7E0
:1006E0007BFF04460F4640EA0A0041EA0B015346ED
:1006F0005A46084313D0114653EA010019D0C8F1F5
:1007000040025046FFF777FF05460E4650465946D1
:100710004246FFF761FF084305D0012004E0204670
:100720003946BDE8F08D0020054346EAE0762C43CB
:1007300037430A986305E40AA0EB08000022FD0A8B
:1007400044EA47540A3002D500200146E9E7010592
:1007500010196941DDE9084500196941BDE8F04D0E
:10076000A2E70000064C074D06E0E06840F00103F8
:1007700094E8070098471034AC42F6D3FFF7DCFC4E
:10078000D4170008F417000800BFFEE770472DE9F2
:10079000F041024600250026002000230024002707
:1007A00091F803C00CF00F0591F803C00CF0100C89
:1007B000BCF1000F03D091F802C04CEA050591F896
:1007C00000C0BCF1000F31D0146800202BE04FF0C6
:1007D000010C0CFA00F3B1F800C00CEA03069E42CB
:1007E00020D183004FF00F0C0CFA03F7BC4305FA3D
:1007F00003FC4CEA040491F803C0BCF1280F06D1B5
:100800004FF0010C0CFA00FCC2F814C00AE091F899
:1008100003C0BCF1480F05D14FF0010C0CFA00FCED
:10082000C2F810C0401C0828D1D31460B1F800C031
:10083000BCF1FF0F34DD546800202EE000F1080CFD
:100840004FF0010808FA0CF3B1F800C00CEA0306F7
:100850009E4221D183004FF00F0C0CFA03F7BC43EA
:1008600005FA03FC4CEA040491F803C0BCF1280F1C
:1008700005D100F1080C08FA0CF8C2F8148091F8C0
:1008800003C0BCF1480F07D100F1080C4FF001087C
:1008900008FA0CF8C2F81080401C0828CED3546027
:1008A000BDE8F08141617047016170472DE9F05F5B
:1008B0008246CAEB4A10FFF700FE804600220A4B30
:1008C000FFF783FD06460022084BFFF77BFD044639
:1008D000FFF718FE1FFA80FB59464FF0804000F0EA
:1008E00070FCBDE8F09F000000C072400068A040AE
:1008F0002DE9F05F82460AEB4A01C1EB4A10FFF78F
:10090000DCFD80460022094BFFF75FFD0646002212
:10091000074BFFF757FD0446FFF7F4FD1FFA80FB76
:100920005946044800F04DFCBDE8F09F00C07240FD
:1009300000009E400004004000BFFEE708B5012112
:100940001C2000F085F84FF47060ADF80000032023
:100950008DF8020010208DF8030069460F48FFF75C
:1009600016FF4FF47040ADF8000069460C48FFF7E1
:100970000EFF01200B4908600B49C1F8B401094979
:1009800008310860091D086008490860091D0860F1
:10099000091D08600649C1F8AC0108BD0008014006
:1009A000000C0140B081214200802142A00121427F
:1009B0000000214200BFFEE77047000070B5002133
:1009C00000230F22C47804B3154C246804F4E064B7
:1009D000C4F5E064210AC1F10403CA40447804FA72
:1009E00003F184781440214309010E4C0678A15587
:1009F000047804F01F050124AC4005786D11AD00AA
:100A000005F1E025C5F8004109E0047804F01F0570
:100A10000124AC40044D0678761145F8264070BD9F
:100A20000CED00E000E400E080E100E07047000031
:100A300029B1064AD2690243044BDA6104E0034A51
:100A4000D2698243014BDA61704700000010024016
:100A500029B1064A92690243044B9A6104E0034AB1
:100A600092698243014B9A61704700000010024076
:100A700030B500210022002400232D4D6D6805F0C3
:100A80000C0121B1042905D0082923D105E0294D05
:100A9000056022E0274D05601FE0254D6D6805F4D7
:100AA0007012234D6D6805F48034022505EB9242E7
:100AB0001CB9214D554305600BE01D4D6D6805F4D3
:100AC00000351DB11C4D5543056002E0194D5543DD
:100AD000056002E0174D056000BF00BF144D6D6852
:100AE00005F0F0010909154D6B5C0568DD404560B6
:100AF0000F4D6D6805F4E061090A104D6B5C4568A7
:100B0000DD4085600A4D6D6805F46051C90A0B4DE2
:100B10006B5C4568DD40C560054D6D6805F440417E
:100B2000890B074D6B5CC568B5FBF3F5056130BDFE
:100B30000010024000127A0000093D00560000201B
:100B400066000020704710B500F002F810BD0000EC
:100B50000CB50020019000903348006840F48030CC
:100B60003149086000BF3048006800F40030009050
:100B70000198401C0190009818B90198B0F5A06F39
:100B8000F1D12948006800F4003010B10120009034
:100B900001E0002000900098012843D1234800681C
:100BA00040F01000214908600846006820F003006A
:100BB00008600846006840F0020008601A48406873
:100BC000194948600846406848600846406840F453
:100BD000806048600846406820F47C104860084601
:100BE000406840F4E81048600846006840F08070B3
:100BF000086000BF0C48006800F000700028F9D0C1
:100C00000948406820F003000749486008464068EA
:100C100040F00200486000BF0348406800F00C004C
:100C20000828F9D10CBD000000100240002002404D
:100C3000042808D14FF0E021096941F004014FF088
:100C4000E022116107E04FF0E021096921F0040181
:100C50004FF0E022116170477047000010B5134853
:100C6000006840F0010011490860084640681049DA
:100C700008400E494860084600680E4908400B4984
:100C800008600846006820F4802008600846406834
:100C900020F4FE0048604FF41F008860FFF753FF08
:100CA0004FF000600449086010BD000000100240D1
:100CB0000000FFF8FFFFF6FE08ED00E02DE9F04F21
:100CC00089B00121724800F002FA00287ED001218B
:100CD0006F4800F0EDF96F480068002877D06D4844
:100CE0000068401E6B4908606B48006840F2E731BD
:100CF0008842EBD069480068694908606948006823
:100D0000664908606848006868490968081A6249C5
:100D10000968084450386549086008460068644915
:100D2000096890FBF1F05F49086000206149087094
:100D30000EE05D495F480078401C51F820005D4A94
:100D4000127841F822005B480078401C594908702D
:100D500057480068401E574909788842E9DC4E48E8
:100D60000068503852490968491E4F4A42F821002C
:100D70004C48006803280CDA4A48006810F1030F59
:100D800007DD4D48006820B14B480068401E4A49C5
:100D9000086043480068FFF787FB059047480168F3
:100DA0000598FFF739FA07903C480068FFF77CFB8D
:100DB0000390424801684FF08040FFF72DFA019000
:100DC0003F4801680198FFF7CFF901E05DE059E085
:100DD00002900399FFF720FA059032480068FFF768
:100DE00063FB03903748016835480068FFF7BCF99A
:100DF0000190324801680198FFF7B6F90290039913
:100E0000FFF70AFA04900599FFF700FA0690079990
:100E1000FFF7AAF90890FFF78EFB804600222A4BC5
:100E2000FFF7D3FA04460D4628480068FFF783FB16
:100E3000064622462B46FFF721FA8246FFF7A6FB1D
:100E40002249086008460068FFF775FB0446002247
:100E50001F4BFFF783FB03D21E481C49086008E0C4
:100E600000211A480068FFF7ADFB02D200201749A5
:100E7000086016480068FFF731FB84B22046FFF790
:100E800015FD02E000200C49086009B0BDE8F08FB4
:100E9000002C014018000020000000203400002039
:100EA0003800002030000020B8000020080000209A
:100EB000280000202C000020140000202400002026
:100EC0001C000020200000200088C34048000020B3
:100ED0000070B7400080BB4510B50121880700F0C5
:100EE000F6F818B10121880700F0E2F810BD000003
:100EF00030B589B005460C4601210846FFF798FD3C
:100F000001210520FFF7A4FD0220ADF820001820E4
:100F10008DF8230003208DF8220008A91448FFF75C
:100F200036FCADF81850ADF814400020ADF81A00AA
:100F3000ADF8160005A94FF0804000F045F960209B
:100F4000ADF804000120ADF806000020ADF80C005B
:100F500001A94FF0804000F0D5F80821C80600F044
:100F600023F90121880700F0A6F809B030BD000080
:100F70000008014010B50121044800F0A8F818B19C
:100F80000121024800F094F810BD00000004004068
:100F900030B589B005460C4601210220FFF748FD17
:100FA00001210520FFF754FD8020ADF82000182016
:100FB0008DF8230003208DF8220008A91348FFF7BD
:100FC000E6FBADF81850ADF814400020ADF81A005B
:100FD000ADF8160005A90E4800F0F6F86020ADF84F
:100FE00004000120ADF806000020ADF80C0001A9B6
:100FF000074800F087F80821054800F0D5F80121DE
:10100000034800F058F809B030BD00000008014066
:101010000004004010B501210A4800F058F880B1E2
:101020000121084800F044F80748006820B9202151
:101030000648FFF737FC04E003480068401E0249F9
:10104000086010BD000800401000002000080140AA
:101050007FB505460C4601210420FFF7E9FCADF8F9
:101060000850ADF804400020ADF80A00ADF80600C5
:1010700001A90E4800F0A8F8012211460B4800F023
:1010800037F81E208DF8000000208DF801000320A5
:101090008DF8020001208DF803006846FFF78EFCF2
:1010A0000121024800F007F87FBD00000008004061
:1010B000CA430282704721B1028842F001020280D5
:1010C00004E002884FF6FE731A400280704730B584
:1010D0000246002000230024158A05EA01039589B1
:1010E00005EA010413B10CB1012000E0002030BD7D
:1010F0001AB183890B43838102E083898B43838107
:101100007047000070B5002400220023058C4FF6C4
:10111000EF7635400584028C8388048B48F6FF7592
:101120002C404FF6FF452C400D884FF6FF7606EA1F
:1011300005252C434FF6DF752A400D8906EA051573
:101140002A434D8806EA05152A43154DA84202D0C8
:10115000144DA8421DD14FF67F752A404D894FF698
:10116000FF7606EA05152A434FF6BF752A408D889B
:1011700006EA05152A434FF6FF352B404FF2FF755F
:101180002B408D8906EA85052B43CD8906EA850526
:101190002B4383800483CD880587028470BD0000C3
:1011A000002C0140003401400A460021018B4FF21F
:1011B000FF7319404FF6FF7303EA022319430183BB
:1011C0007047018770470000002202881D4B98423B
:1011D0000ED01D4B98420BD0B0F1804F08D01B4B66
:1011E000984205D01A4B984202D01A4B984204D12B
:1011F0004FF68F731A404B881A43174B984207D00B
:10120000164B984204D04FF6FF431A40CB881A433E
:1012100002808B8883850B8803850A4B98420BD00C
:10122000094B984208D00E4B984205D00D4B98427E
:1012300002D00D4B984201D10B7A038601238382A1
:1012400070470000002C01400034014000040040C1
:1012500000080040000C0040001000400014004056
:1012600000400140004401400048014010B540F2F8
:101270002551344800F083F8002862D0314800F04E
:1012800039F9C4B25B2C02D101202F4908702E48D5
:101290000078012855D15B2C53D05D2C09D02B4808
:1012A0002B49097844542A480078401C2849087082
:1012B00047E00020274908802749087011E02348AB
:1012C00025490978405C30382249098801EB8101C1
:1012D00000EB41001F4908801F480078401C1E4950
:1012E00008701D4800780328E9DB1A4800881B496C
:1012F000086000201749088004201749087011E091
:10130000124815490978405C30381249098801EBC8
:10131000810100EB41000F4908800F480078401C14
:101320000D4908700C4800780728E9DB0948008857
:101330000B490860002004490870064908800449E8
:10134000087010BD004400405000002058010020EB
:101350005200002054000020510000200000002016
:1013600004000020704721B1828942F4005282813A
:1013700004E082894DF6FF731A408281704770B590
:101380000246002400230025002040F66A16B142E0
:1013900000D100BFC1F3421501F01F03012606FA78
:1013A00003F3012D02D19689334006E0022D02D1CC
:1013B000168A334001E0968A33400C12012606FA61
:1013C00004F41688344013B10CB1012000E0002071
:1013D00070BDF0B50346002400260025002040F62D
:1013E0006A17B94200D100BF1846C1F3421401F098
:1013F0001F06012707FA06F5012C01D10C3004E085
:10140000022C01D1103000E014301AB107682F43CC
:10141000076002E00768AF430760F0BD2DE9F047C1
:1014200086B005460E460024A24600BFA14600270E
:10143000B08900B100BF2F462C8A4CF6FF700440E3
:10144000F08804432C82AC894EF6F3100440B08837
:1014500031890843718908430443AC81AC8A4FF653
:10146000FF400440B0890443AC8201A8FFF700FBB1
:101470001F48874202D1DDF810A001E0DDF80CA082
:10148000A88900F4004040B10AEBCA0000EB0A1042
:1014900031684900B0FBF1F807E00AEBCA0000EB45
:1014A0000A1031688900B0FBF1F86420B8FBF0F055
:1014B00004012009642101FB1089A88900F400407F
:1014C00040B1322000EBC900B0FBF1F000F00700A2
:1014D000044308E0322000EB09106421B0FBF1F076
:1014E00000F00F0004432C8106B0BDE8F087000037
:1014F0000038014001468888C0F30800704700BFEB
:10150000FEE702E008C8121F08C1002AFAD170479E
:101510007047002001E001C1121F002AFBD1704773
:1015200010B56FF00400FFF783FB0A4800680A4912
:10153000B0FBF1F0094908700846007800EB400163
:10154000C1EBC0104FF6FF7101EAC00004490880EA
:1015500010BD00006C00002000127A008000002006
:101560008200002008B501210420FFF771FA6020F5
:10157000ADF8000010208DF8030003208DF8020064
:1015800069460248FFF703F908BD00000008014062
:1015900000BF00BF00BF00BFFFF7C2FF472144F6F6
:1015A0001F60FFF7F5FC472144F61F60FFF7A0FC22
:1015B00000F06AF800F0BAF8FFF7D4FFFFF7BEF9C1
:1015C00040F6B830FFF772F90020FFF791F954E0C8
:1015D00020212A48FFF768F94FF47A7028490860FB
:1015E0004721401EFFF734FD00BF25480068002852
:1015F000FBD100212348FFF75EFD20211F48FFF7A4
:1016000051F94FF47A701E4908604721401EFFF7D8
:101610001FFD00BF1A4800680028FBD100211948AF
:10162000FFF749FD40211548FFF73EF91420144902
:101630000860472140F2E730FFF70AFD00BF10487D
:1016400000680028FBD100210E48FFF734FD40213F
:101650000A48FFF727F941F2883009490860472115
:1016600040F2E730FFF7F4FC00BF054800680028AF
:10167000FBD100210348FFF71EFDA9E70008014048
:10168000100000200008004000B587B00121480488
:10169000FFF7CEF901210420FFF7DAF90420ADF8B5
:1016A000180003208DF81A0018208DF81B0006A9D9
:1016B0001C48FFF76CF80820ADF8180004208DF8DE
:1016C0001B0006A91748FFF762F826208DF80400D2
:1016D00003208DF805008DF8060001208DF8070025
:1016E00001A8FFF76BF94FF4165002900020ADF8F7
:1016F0000C00ADF80E00ADF81000ADF814000C2091
:10170000ADF8120002A90848FFF788FE012240F256
:1017100025510548FFF75DFE01210348FFF723FE31
:1017200007B000BD000801400044004000B587B08C
:1017300001218804FFF77CF901210820FFF788F9CF
:101740004FF48060ADF8180003208DF81A001820BF
:101750008DF81B0006A91D48FFF719F84FF400602B
:10176000ADF8180004208DF81B0006A91748FFF7F4
:101770000EF827208DF8040003208DF805008DF861
:10178000060001208DF8070001A8FFF717F94FF4B4
:10179000E13002900020ADF80C00ADF80E00ADF87D
:1017A0001000ADF814000C20ADF8120002A9084892
:1017B000FFF734FE012240F225510548FFF709FEEC
:1017C00001210348FFF7CFFD07B000BD000C014029
:1017D00000480040F41700080000002084000000CA
:1017E000021500087818000884000020F4040000A6
:1017F00012150008E70300000100000000000000CF
:1018000000000000000000001027000000000000A1
:101810000000C84200002041000000001400000049
:1018200000000000000000000000000000000000B8
:1018300000000000000000000000000000000000A8
:101840000000000000000000000000000000010295
:101850000304010203040607080902040608000045
:1018600000A24A040000000000000000010203047E
:08187000060708090000000052
:0400000508000131BD
:00000001FF
