:020000040800F2
:100000004805002045010008E109000861090008D1
:10001000DD090008B507000807150008000000000A
:100020000000000000000000000000006D0B000850
:10003000B907000800000000550A0008810C0008FC
:100040005F0100085F0100085F0100085F01000810
:100050005F0100085F0100085F0100085F01000800
:100060005F0100085F0100085F0100085F010008F0
:100070005F0100085F0100085F0100085F010008E0
:100080005F0100085F0100085F0100085F010008D0
:100090005F0100085F0100085F0100085F010008C0
:1000A0005F010008450D00085F0100085F010008BE
:1000B000410F0008DD0F00087D1000085F010008F7
:1000C0005F0100085F0100085F0100085F01000890
:1000D0005F0100085F010008751200085F01000859
:1000E0005F0100085F0100085F0100085F01000870
:1000F0005F0100085F0100085F0100085F01000860
:100100005F0100085F0100085F0100085F0100084F
:100110005F0100085F0100085F0100085F0100083F
:100120005F0100085F0100085F0100085F0100082F
:10013000DFF80CD000F02CFB0048004781170008C6
:10014000480500200648804706480047FEE7FEE7CE
:10015000FEE7FEE7FEE7FEE7FEE7FEE7FEE7FEE777
:10016000850C000831010008F0B480EA0102D40FC8
:100170004200B2EB410F02D20246084611464A0045
:1001800042D0C30DDDB2C1F3C752AD1A202D35DA0E
:10019000C1F3160141F4000204B15242C5F1200638
:1001A00002FA06F12A411044B3EBD05F23D0C4B168
:1001B000012DA0EBC35009DCF0BC4FF0004202EA75
:1001C000C352DBB200F5000000F056BA400000F167
:1001D000807000EBC350A0F1807040EAD1704900FC
:1001E00009E0490841EAC071A0EBC35000F50000E6
:1001F000400800EBC350F0BC00F035BA6142012268
:1002000002EB4101001BF6E7F0BC704781F00041B2
:10021000AAE780F00040A7E780EA010210B502F0EB
:100220000043400022D04A001FD0010E01EB1261B2
:10023000C0F35600C2F3560240F4000042F400023C
:10024000A0FB022000047F39140400D0401C50EAB7
:10025000124001D44000491EC2B20C0604EBD0107B
:10026000401C4008802A02D003E0002010BD20F08E
:100270000100002900DA0020184310BD2DE9FE4FCF
:10028000804681EA0300C00F0C46009021F0004137
:1002900023F00045B8EB0200A94105D240462146B3
:1002A00090461C460B46024623F00040104347D0C0
:1002B000270DC7F30A00C3F30A510290401A0190B8
:1002C00040286BDAC3F3130040F4801B0098924679
:1002D00020B10023D2EB030A63EB0B0B01985946C4
:1002E000C0F14002504600F08DF906460D465046DA
:1002F0005946019A00F0A5F910EB0800614100246D
:1003000087EA115284EAE7731A4340D0009A62B335
:10031000019A012A4FEA075215DC001B61EB02012A
:100320004FF0004202EA0752CDE90042001C41F5BD
:10033000801132462B4600F0DCF903B0BDE8F08FA7
:1003400040462146F9E7001B61EB0201001C41F524
:10035000801300185B412018A2F5001747EB03013A
:1003600040EAD570B6196D4111E06D084FEA3606C6
:1003700045EAC0754FEA0752001B61EB0201001C01
:1003800041F5801149084FEA3000001951413246C9
:100390002B4603B0BDE8F04F00F09CB90098012255
:1003A00040000023D0EB020263EBE073009821468B
:1003B0004FEAE074B8EB000061EB0401E9E783F079
:1003C00000435BE781F0004158E72DE9F04D81EAF9
:1003D000030404F0004B21F0004514464FF0000ADE
:1003E00023F0004150EA050220D054EA01021DD05A
:1003F000C5F30A570246C5F31303C1F31300C1F353
:100400000A5640F4801543F48013A7EB0608101B2E
:10041000D64608F2FD3873EB050002D308F1010857
:1004200001E092185B41B8F1000F03DA00200146A9
:10043000BDE8F08D00204FF48011064684460EE0A2
:10044000171B73EB050705D3121B63EB050306436C
:100450004CEA010C49084FEA300092185B4150EA1F
:100460000107EDD152EA030012D082EA040083EAC8
:100470000501084305D0101BAB4106D20122002321
:1004800006E000224FF0004302E06FF0010253103B
:100490001AEB06004CEB085110EB0A0041EB0B0184
:1004A000BDE8F04D00F016B9C10F80EAE0700844D5
:1004B000CA079623002100F0DFB80EB5C10F80EA0D
:1004C000E0700844CA07002140F233438DE80E0073
:1004D0000A460B4600F00DF903B000BD20F00040C5
:1004E000C10DC0F3160040F400007F2901DA00209E
:1004F0007047962903DCC1F19601C84070479639D0
:1005000088407047C1F30A5210B5C1F3130140F29D
:10051000FF3341F480119A4201DA002010BD40F20D
:1005200033439A42A2F2334203DC524200F079F89C
:1005300010BD904010BD00F0004230F000400AD0E5
:10054000C10D01F56071C0F3160042EA0151C20805
:1005500040071143704700200146704730B5041E24
:1005600071F1000404DB4FF00044404264EB0101F0
:10057000141E73F1000405DB1C464FF00043524289
:1005800063EB0403994208BF904230BD01F0004381
:1005900030B421F0004150EA010206D00A0DA2F564
:1005A0006072C1F31301002A02DC30BC00207047E6
:1005B000440F44EAC104C100E01830BC00EBC25053
:1005C00000F051B8002801DBC0F10040002901DB38
:1005D000C1F100418142704730B50B460146002011
:1005E0002022012409E021FA02F59D4205D303FAF5
:1005F00002F5491B04FA02F52844151EA2F1010276
:10060000F1DC30BD202A04DB203A00FA02F10020A0
:1006100070479140C2F1200320FA03F31943904040
:100620007047202A04DB203A21FA02F000217047AB
:1006300021FA02F3D040C2F120029140084319464A
:100640007047202A06DBCB17203A41FA02F043EA32
:10065000E07306E041FA02F3D040C2F1200291407B
:100660000843194670470029A8BF7047401C49003D
:1006700008BF20F00100704710B4B0FA80FC00FA07
:100680000CF050EA010404BF10BC704749B1CCF132
:10069000200421FA04F411FA0CF118BF01212143BE
:1006A0000843A3EB0C01CB1D4FEA00614FEA102079
:1006B00042BF002010BC704700EBC350104400291B
:1006C000A4BF10BC7047401C490008BF20F00100C7
:1006D00010BC704710B5141E73F1000408DA401CFA
:1006E00041F1000192185B411A4301D120F0010051
:1006F00010BD2DE9F04D92469B4611B1B1FA81F241
:1007000002E0B0FA80F220329046FFF77BFF044609
:100710000F4640EA0A0041EA0B0153465A46084395
:1007200013D0114653EA010019D0C8F140025046D7
:10073000FFF777FF05460E46504659464246FFF7FB
:1007400061FF084305D0012004E020463946BDE89A
:10075000F08D0020054346EAE0762C4337430A98A3
:100760006305E40AA0EB08000022FD0A44EA4754AE
:100770000A3002D500200146E9E701051019694158
:10078000DDE9084500196941BDE8F04DA2E7000028
:10079000064C074D06E0E06840F0010394E80700CE
:1007A00098471034AC42F6D3FFF7C6FC98180008FF
:1007B000B818000800BFFEE770472DE9F041024677
:1007C00000250026002000230024002791F803C004
:1007D0000CF00F0591F803C00CF0100CBCF1000FE9
:1007E00003D091F802C04CEA050591F800C0BCF1B5
:1007F000000F31D0146800202BE04FF0010C0CFAF0
:1008000000F3B1F800C00CEA03069E4220D1830039
:100810004FF00F0C0CFA03F7BC4305FA03FC4CEA4B
:10082000040491F803C0BCF1280F06D14FF0010C6D
:100830000CFA00FCC2F814C00AE091F803C0BCF145
:10084000480F05D14FF0010C0CFA00FCC2F810C0A3
:10085000401C0828D1D31460B1F800C0BCF1FF0FD0
:1008600034DD546800202EE000F1080C4FF0010840
:1008700008FA0CF3B1F800C00CEA03069E4221D13D
:1008800083004FF00F0C0CFA03F7BC4305FA03FC8E
:100890004CEA040491F803C0BCF1280F05D100F123
:1008A000080C08FA0CF8C2F8148091F803C0BCF1E7
:1008B000480F07D100F1080C4FF0010808FA0CF8B6
:1008C000C2F81080401C0828CED35460BDE8F081E7
:1008D000416170472DE9F05F8246CAEB4A10FFF78D
:1008E000ECFD804600220A4BFFF76FFD0646002212
:1008F000084BFFF767FD0446FFF704FE1FFA80FB75
:1009000059464FF0804000F060FCBDE8F09F0000C9
:1009100000C072400068A0402DE9F05F82460AEBFB
:100920004A01C1EB4A10FFF7C8FD80460022094B7F
:10093000FFF74BFD06460022074BFFF743FD044639
:10094000FFF7E0FD1FFA80FB5946044800F03DFC2C
:10095000BDE8F09F00C0724000009E4000040040CF
:1009600000BFFEE708B501211C2000F085F84FF418
:100970007060ADF8000003208DF8020010208DF8A3
:10098000030069460F48FFF718FF4FF47040ADF8B9
:10099000000069460C48FFF710FF01200B49086072
:1009A0000B49C1F8B401094908310860091D086004
:1009B00008490860091D0860091D08600649C1F85A
:1009C000AC0108BD00080140000C0140B08121428B
:1009D00000802142A00121420000214200BFFEE729
:1009E0007047000070B5002100230F22C47804B3C3
:1009F000154C246804F4E064C4F5E064210AC1F1F4
:100A00000403CA40447804FA03F184781440214373
:100A100009010E4C0678A155047804F01F05012445
:100A2000AC4005786D11AD0005F1E025C5F8004139
:100A300009E0047804F01F050124AC40044D067859
:100A4000761145F8264070BD0CED00E000E400E0B2
:100A500080E100E07047000029B1064AD2690243F4
:100A6000044BDA6104E0034AD2698243014BDA6144
:100A7000704700000010024029B1064A9269024303
:100A8000044B9A6104E0034A92698243014B9A61E4
:100A9000704700000010024030B500210022002401
:100AA00000232D4D6D6805F00C0121B1042905D0FE
:100AB000082923D105E0294D056022E0274D056076
:100AC0001FE0254D6D6805F47012234D6D6805F427
:100AD0008034022505EB92421CB9214D5543056037
:100AE0000BE01D4D6D6805F400351DB11C4D5543DF
:100AF000056002E0194D5543056002E0174D0560A1
:100B000000BF00BF144D6D6805F0F0010909154DD7
:100B10006B5C0568DD4045600F4D6D6805F4E06174
:100B2000090A104D6B5C4568DD4085600A4D6D68B3
:100B300005F46051C90A0B4D6B5C4568DD40C5602A
:100B4000054D6D6805F44041890B074D6B5CC56828
:100B5000B5FBF3F5056130BD0010024000127A00CC
:100B600000093D005600002066000020704710B5C7
:100B700000F002F810BD00000CB5002001900090BC
:100B80003348006840F480303149086000BF304885
:100B9000006800F4003000900198401C019000981B
:100BA00018B90198B0F5A06FF1D12948006800F498
:100BB000003010B10120009001E00020009000986A
:100BC000012843D12348006840F010002149086003
:100BD0000846006820F0030008600846006840F0FE
:100BE000020008601A484068194948600846406891
:100BF00048600846406840F48060486008464068A5
:100C000020F47C1048600846406840F4E8104860D2
:100C10000846006840F08070086000BF0C4800681B
:100C200000F000700028F9D00948406820F0030067
:100C3000074948600846406840F00200486000BF2D
:100C40000348406800F00C000828F9D10CBD0000F2
:100C50000010024000200240042808D14FF0E0219B
:100C6000096941F004014FF0E022116107E04FF003
:100C7000E021096921F004014FF0E0221161704781
:100C80007047000010B51348006840F0010011499A
:100C9000086008464068104908400E494860084608
:100CA00000680E4908400B4908600846006820F4B7
:100CB000802008600846406820F4FE0048604FF439
:100CC0001F008860FFF753FF4FF000600449086081
:100CD00010BD0000001002400000FFF8FFFFF6FE0C
:100CE00008ED00E07FB505460C460121C802FFF77C
:100CF000C3FEADF80850ADF804400020ADF80A007E
:100D0000ADF8060001A90E4800F062FA0122114672
:100D10000B4800F0F1F919208DF8000001208DF842
:100D2000010003208DF8020001208DF803006846C1
:100D3000FFF758FE0121024800F0C1F97FBD000015
:100D4000002C01402DE9F04F89B001216B4800F0E3
:100D5000C2F900287ED00121684800F0ADF968484A
:100D60000068684908606848006865490860674825
:100D7000006867490968081A664909680844A03884
:100D800063490860084600686349096890FBF1F010
:100D90005D4908600020614908700EE05B495F48CA
:100DA0000078401C51F820005C4A127841F822007B
:100DB0005A480078401C5949087057480068401E3E
:100DC000564909788842E9DC52480068A0385249FF
:100DD0000968491E4D4A42F821004B480068052821
:100DE0000DDA4948006810F1050F08DD4C4800682D
:100DF00048B14B480068401E4949086003E042F290
:100E00001070474908603F480068FFF74DFB0590A8
:100E1000444801680598FFF7FFF9079038480068D3
:100E2000FFF742FB03903F4801684FF08040FFF717
:100E3000F3F901903C4801680198FFF795F9029099
:100E40000399FFF7E9F905902F480068FFF72CFB9D
:100E5000039000E04EE03548016833480068FFF732
:100E600083F901902F4801680198FFF77DF90290FE
:100E70000399FFF7D1F904900599FFF7C7F9069098
:100E80000799FFF771F90890FFF755FB804600229C
:100E9000274BFFF79AFA04460D4626480068FFF7ED
:100EA0004AFB064622462B46FFF7E8F98246FFF743
:100EB0006DFB2049086008460068FFF73CFB0446CC
:100EC00000221D4BFFF74AFB03D21C48194908605A
:100ED00008E0002117480068FFF774FB02D20020E9
:100EE0001449086013480068FFF7F8FA84B22046F6
:100EF000FFF7F0FC09B0BDE8F08F0000002C0140C6
:100F000030000020340000202C000020840000204D
:100F100008000020000000202400002028000020FD
:100F20001400002020000020180000201C000020D9
:100F300000408F40440000200070B7400080BB4557
:100F400010B50121880700F0C6F818B10121880703
:100F500000F0B2F810BD000030B589B005460C466F
:100F600001210846FFF778FD01210520FFF784FDE8
:100F70000220ADF8200018208DF8230003208DF802
:100F8000220008A91448FFF718FCADF81850ADF876
:100F900014400020ADF81A00ADF8160005A94FF076
:100FA000804000F015F96020ADF804000120ADF894
:100FB00006000020ADF80C0001A94FF0804000F0C1
:100FC000A5F80821C80600F0F3F80121880700F011
:100FD00076F809B030BD00000008014010B50121CD
:100FE000044800F078F818B10121024800F064F8D4
:100FF00010BD00000004004030B589B005460C4625
:1010000001210220FFF728FD01210520FFF734FD13
:101010008020ADF8200018208DF8230003208DF8E3
:10102000220008A91348FFF7C8FBADF81850ADF827
:1010300014400020ADF81A00ADF8160005A90E48BE
:1010400000F0C6F86020ADF804000120ADF80600FD
:101050000020ADF80C0001A9074800F057F808215E
:10106000054800F0A5F80121034800F028F809B070
:1010700030BD0000000801400004004010B501210F
:101080000A4800F028F880B10121084800F014F85F
:101090000748006820B920210648FFF719FC04E042
:1010A00003480068401E0249086010BD0008004067
:1010B0001000002000080140CA430282704721B19D
:1010C000028842F00102028004E002884FF6FE73BB
:1010D0001A400280704730B50246002000230024E9
:1010E000158A05EA0103958905EA010413B10CB1DB
:1010F000012000E0002030BD1AB183890B438381B9
:1011000002E083898B4383817047000070B500241F
:1011100000220023058C4FF6EF7635400584028CC3
:101120008388048B48F6FF752C404FF6FF452C4012
:101130000D884FF6FF7606EA05252C434FF6DF753E
:101140002A400D8906EA05152A434D8806EA051549
:101150002A43154DA84202D0144DA8421DD14FF686
:101160007F752A404D894FF6FF7606EA05152A431A
:101170004FF6BF752A408D8806EA05152A434FF6BB
:10118000FF352B404FF2FF752B408D8906EA850510
:101190002B43CD8906EA85052B4383800483CD88C4
:1011A0000587028470BD0000002C0140003401401E
:1011B0000A460021018B4FF2FF7319404FF6FF736F
:1011C00003EA022319430183704701877047000037
:1011D000002202881D4B98420ED01D4B98420BD026
:1011E000B0F1804F08D01B4B984205D01A4B984263
:1011F00002D01A4B984204D14FF68F731A404B8895
:101200001A43174B984207D0164B984204D04FF61A
:10121000FF431A40CB881A4302808B8883850B8852
:1012200003850A4B98420BD0094B984208D00E4BCD
:10123000984205D00D4B984202D00D4B984201D1F7
:101240000B7A03860123838270470000002C014043
:10125000003401400004004000080040000C004041
:1012600000100040001400400040014000440140D4
:101270000048014010B540F22551344800F082F892
:10128000002862D0314800F039F9C4B25B2C02D199
:1012900001202F4908702E480078012855D15B2C79
:1012A00053D05D2C09D02B482B49097844542A4847
:1012B0000078401C2849087047E000202749088032
:1012C0002749087011E0234825490978405C3038E7
:1012D0002249098801EB810100EB41001F49088088
:1012E0001F480078401C1E4908701D4800780328DC
:1012F000E9DB1A4800881B4908600020174908806C
:1013000004201749087011E0124815490978405C1B
:1013100030381249098801EB810100EB41000F4987
:1013200008800F480078401C0D4908700C48007870
:101330000728E9DB094800880B49086000200449B8
:101340000870064908800449087010BD0044004038
:1013500050000020240100205200002054000020F2
:1013600051000020000000200400002021B18289EB
:1013700042F40052828104E082894DF6FF731A40E4
:101380008281704770B502460024002300250020AA
:1013900040F66A16B14200D100BFC1F3421501F018
:1013A0001F03012606FA03F3012D02D1968933406B
:1013B00006E0022D02D1168A334001E0968A3340BE
:1013C0000C12012606FA04F41688344013B10CB14D
:1013D000012000E0002070BDF0B503460024002687
:1013E0000025002040F66A17B94200D100BF184618
:1013F000C1F3421401F01F06012707FA06F5012C7C
:1014000001D10C3004E0022C01D1103000E0143086
:101410001AB107682F43076002E00768AF4307600F
:10142000F0BD00002DE9F04786B005460E460024C9
:10143000A24600BFA1460027B08900B100BF2F46D9
:101440002C8A4CF6FF700440F08804432C82AC894F
:101450004EF6F3100440B08831890843718908437F
:101460000443AC81AC8A4FF6FF400440B08904438A
:10147000AC8201A8FFF710FB1F48874202D1DDF8BC
:1014800010A001E0DDF80CA0A88900F4004040B1F4
:101490000AEBCA0000EB0A1031684900B0FBF1F812
:1014A00007E00AEBCA0000EB0A1031688900B0FBC4
:1014B000F1F86420B8FBF0F004012009642101FB7D
:1014C0001089A88900F4004040B1322000EBC90027
:1014D000B0FBF1F000F00700044308E0322000EB1D
:1014E00009106421B0FBF1F000F00F0004432C81DF
:1014F00006B0BDE8F087000000380140014688884A
:10150000C0F30800704700BFFEE700000FB4054BB2
:1015100010B503A9044A029800F018F810BC5DF851
:1015200014FB0000651700084C00002002E008C80A
:10153000121F08C1002AFAD170477047002001E04D
:1015400001C1121F002AFBD1704700002DE9FF4F97
:1015500089B09B460446002506E025280BD05A4654
:101560000B999047641C6D1C20780028F5D10DB0B4
:101570002846BDE8F08F0027B8460122474900E021
:10158000074314F8013F203B02FA03F00842F7D169
:1015900020782E2819D114F8010F47F004072A28C3
:1015A0000ED06FF02F022078A0F1300109290CD85D
:1015B00008EB880102EB410100EB0108641CF2E733
:1015C0000A98641C50F8048B0A9020780028CED02A
:1015D000642808D0692806D075281ED05A460B9971
:1015E00090476D1C58E00A994FF00A0901C90A9109
:1015F000002802DA40422D2102E0390504D52B21D2
:101600008DF82010012103E0F90704D02021F7E72D
:101610008A4608AE0DE00021FAE70A994FF00A0960
:1016200001C90A91F7E74946FEF7D6FF303106F8BF
:10163000011D0028F7D1ADEB060000F12009780765
:1016400001D44FF00108C84502DDA8EB090000E015
:1016500000208046002706E008A85A46C05D0B9986
:1016600090476D1C7F1C5745F6DB04E030205A463E
:101670000B9990476D1CB8F10001A8F10108F5DC49
:1016800005E016F8010B5A460B9990476D1CB9F10D
:101690000001A9F10109F4DC641C65E709280100D7
:1016A00010B56FF00400FFF7D7FA0A4800680A493E
:1016B000B0FBF1F0094908700846007800EB4001E2
:1016C000C1EBC0104FF6FF7101EAC0000449088069
:1016D00010BD00006C00002000127A008000002085
:1016E000820000200146114A12884A434FF0E0234D
:1016F0005A6100229A611A46126942F001021A6187
:1017000000BF4FF0E022106900F001021AB100F4AE
:101710008032002AF5D04FF0E022126922F0010257
:101720004FF0E0231A6100229A6170478200002086
:1017300008B501210420FFF79FF96020ADF80000F3
:1017400010208DF8030003208DF80200694604483C
:10175000FFF733F860210248FFF7BAF808BD000030
:101760000008014000BF054A128802F04002002A2A
:10177000F9D0C2B2014B1B1D1A80704700440040D3
:1017800000BF00BF00BF00BFFFF78AFF472144F63C
:101790001F60FFF731FC472144F61F60FFF7DCFBB9
:1017A00000F028F8FFF7C4FFFFF7DCF840F6B83088
:1017B000FFF790F80020FFF7AFF847216320FFF70D
:1017C00091FA0DE007480068FEF788FE04462246BD
:1017D0000548016805A0FFF799FE6420FFF782FF26
:1017E000F0E70000440000202C00002025642C2598
:1017F000640D0A0000B587B001214804FFF72CF9F9
:1018000001210420FFF738F90420ADF81800032067
:101810008DF81A0018208DF81B0006A91C48FEF749
:10182000CCFF0820ADF8180004208DF81B0006A995
:101830001748FEF7C2FF26208DF8040003208DF81C
:1018400005008DF8060001208DF8070001A8FFF7BC
:10185000C9F84FF4165002900020ADF80C00ADF816
:101860000E00ADF81000ADF814000C20ADF8120019
:1018700002A90848FFF7D6FD012240F2255105488C
:10188000FFF7AAFD01210348FFF770FD07B000BD77
:101890000008014000440040B81800080000002083
:1018A000840000002C1500083C190008840000206A
:1018B000C40400003C150008E7030000010000001C
:1018C00000000000000000000000000010270000E1
:1018D0000000C8420000A041000000000A00000013
:1018E00000000000000000000000000000000000F8
:1018F0000000000000000000000000000080BB4469
:1019000000000000000000000000000000000000D7
:10191000000001020304010203040607080902048F
:101920000608000000A24A040000000000000000B9
:0C19300001020304060708090000000083
:0400000508000131BD
:00000001FF
