:020000040800F2
:100000008005002045010008E10C0008990B00085C
:10001000DD0C0008BD080008AB1800080000000057
:100020000000000000000000000000006D0E00084D
:10003000C108000800000000550D0008810F0008ED
:100040005F0100085F0100085F0100085F01000810
:100050005F0100085F0100085F0100085F01000800
:100060005F0100085F0100085F0100085F010008F0
:100070005F0100085F0100085F0100085F010008E0
:100080005F0100085F0100085F0100085F010008D0
:100090005F0100085F0100085F0100085F010008C0
:1000A0005F010008451000085F0100085F010008BB
:1000B00061120008FD1200089D1300085F0100088E
:1000C0005F0100085F0100085F0100085F01000890
:1000D0005F0100085F010008F5150008ED16000833
:1000E0005F0100085F0100085F0100085F01000870
:1000F0005F0100085F0100085F0100085F01000860
:100100005F0100085F0100085F0100085F0100084F
:100110005F0100085F0100085F0100085F0100083F
:100120005F0100085F0100085F0100085F0100082F
:10013000DFF80CD000F0B0FB00480047611C00085D
:10014000800500200648804706480047FEE7FEE796
:10015000FEE7FEE7FEE7FEE7FEE7FEE7FEE7FEE777
:10016000850F000831010008F0B480EA0102D40FC5
:100170004200B2EB410F02D20246084611464A0045
:1001800042D0C30DDDB2C1F3C752AD1A202D35DA0E
:10019000C1F3160141F4000204B15242C5F1200638
:1001A00002FA06F12A411044B3EBD05F23D0C4B168
:1001B000012DA0EBC35009DCF0BC4FF0004202EA75
:1001C000C352DBB200F5000000F0DABA400000F1E3
:1001D000807000EBC350A0F1807040EAD1704900FC
:1001E00009E0490841EAC071A0EBC35000F50000E6
:1001F000400800EBC350F0BC00F0B9BA61420122E4
:1002000002EB4101001BF6E7F0BC704781F00041B2
:10021000AAE780F00040A7E780EA010210B502F0EB
:100220000043400022D04A001FD0010E01EB1261B2
:10023000C0F35600C2F3560240F4000042F400023C
:10024000A0FB022000047F39140400D0401C50EAB7
:10025000124001D44000491EC2B20C0604EBD0107B
:10026000401C4008802A02D003E0002010BD20F08E
:100270000100002900DA0020184310BD2DE9FE4FCF
:10028000804681EA0300C00F0C46009021F0004137
:1002900023F00045B8EB0200A94105D240462146B3
:1002A00090461C460B46024623F00040104347D0C0
:1002B000270DC7F30A00C3F30A510290401A0190B8
:1002C00040286BDAC3F3130040F4801B0098924679
:1002D00020B10023D2EB030A63EB0B0B01985946C4
:1002E000C0F14002504600F011FA06460D46504655
:1002F0005946019A00F029FA10EB080061410024E8
:1003000087EA115284EAE7731A4340D0009A62B335
:10031000019A012A4FEA075215DC001B61EB02012A
:100320004FF0004202EA0752CDE90042001C41F5BD
:10033000801132462B4600F060FA03B0BDE8F08F22
:1003400040462146F9E7001B61EB0201001C41F524
:10035000801300185B412018A2F5001747EB03013A
:1003600040EAD570B6196D4111E06D084FEA3606C6
:1003700045EAC0754FEA0752001B61EB0201001C01
:1003800041F5801149084FEA3000001951413246C9
:100390002B4603B0BDE8F04F00F020BA00980122D0
:1003A00040000023D0EB020263EBE073009821468B
:1003B0004FEAE074B8EB000061EB0401E9E783F079
:1003C00000435BE781F0004158E72DE9FE4F81EAE9
:1003D000030404F0004421F0004100944FF0000BAE
:1003E00023F0004350EA01045ED052EA03045BD0DC
:1003F000C3F30A54C1F30A552C44A4F2F334019414
:10040000A0FB0254C1F3130141F48011C3F31303A1
:1004100043F4801301FB024400FB034E840A970A55
:1004200044EA815447EA8357A4FB076802958D0A82
:1004300005FB07854FEA932C04FB0C542705029D0E
:100440004FEA065847EA1637B5EB08056EEB070C7E
:10045000870E920E47EA811742EA8312A7FB020138
:10046000B6EB0B0164EB00042B0D43EA0C335E1872
:1004700044EB1C50DA465146E7FB0201C5F3130476
:100480004FEA0B3343EA14534FEA0432019C43EA28
:100490000603A4F10C040294009CCDE900B400F022
:1004A000ACF903B0BDE8F08F00200146F9E72DE973
:1004B000F04D81EA030404F0004B21F0004514469E
:1004C0004FF0000A23F0004150EA050220D054EA20
:1004D00001021DD0C5F30A570246C5F31303C1F349
:1004E0001300C1F30A5640F4801543F48013A7EBC0
:1004F0000608101BD64608F2FD3873EB050002D340
:1005000008F1010801E092185B41B8F1000F03DA2D
:1005100000200146BDE8F08D00204FF48011064612
:1005200084460EE0171B73EB050705D3121B63EB24
:10053000050306434CEA010C49084FEA30009218C3
:100540005B4150EA0107EDD152EA030012D082EA82
:10055000040083EA0501084305D0101BAB4106D215
:100560000122002306E000224FF0004302E06FF07A
:10057000010253101AEB06004CEB085110EB0A0075
:1005800041EB0B01BDE8F04D00F028B9C10F80EA46
:10059000E0700844CA079623002100F0F1B89623C2
:1005A0000022114600F0ECB80EB5C10F80EAE070F1
:1005B0000844CA07002140F233438DE80E000A4682
:1005C0000B4600F01AF903B000BD0EB540F23341FE
:1005D00002910021CDE900110A460B4600F00DF909
:1005E00003B000BD20F00040C10DC0F3160040F480
:1005F00000007F2901DA00207047962903DCC1F151
:100600009601C8407047963988407047C1F30A5236
:1006100010B5C1F3130140F2FF3341F480119A4247
:1006200001DA002010BD40F233439A42A2F2334275
:1006300003DC524200F079F810BD904010BD00F08C
:10064000004230F000400AD0C10D01F56071C0F3E6
:10065000160042EA0151C2084007114370470020CA
:100660000146704730B5041E71F1000404DB4FF001
:100670000044404264EB0101141E73F1000405DBE9
:100680001C464FF00043524263EB0403994208BFFB
:10069000904230BD01F0004330B421F0004150EAF7
:1006A000010206D00A0DA2F56072C1F31301002AFF
:1006B00002DC30BC00207047440F44EAC104C10092
:1006C000E01830BC00EBC25000F051B8002801DB4C
:1006D000C0F10040002901DBC1F1004181427047B7
:1006E00030B50B46014600202022012409E021FA02
:1006F00002F59D4205D303FA02F5491B04FA02F5FF
:100700002844151EA2F10102F1DC30BD202A04DBD1
:10071000203A00FA02F1002070479140C2F1200314
:1007200020FA03F3194390407047202A04DB203A53
:1007300021FA02F00021704721FA02F3D040C2F101
:1007400020029140084319467047202A06DBCB1748
:10075000203A41FA02F043EAE07306E041FA02F37C
:10076000D040C2F120029140084319467047002949
:10077000A8BF7047401C490008BF20F00100704727
:1007800010B4B0FA80FC00FA0CF050EA010404BF87
:1007900010BC704749B1CCF1200421FA04F411FADD
:1007A0000CF118BF012121430843A3EB0C01CB1D21
:1007B0004FEA00614FEA102042BF002010BC704792
:1007C00000EBC35010440029A4BF10BC7047401C6C
:1007D000490008BF20F0010010BC704710B5141E7E
:1007E00073F1000408DA401C41F1000192185B41EA
:1007F0001A4301D120F0010010BD2DE9F04D9246C1
:100800009B4611B1B1FA81F202E0B0FA80F22032D7
:100810009046FFF77BFF04460F4640EA0A0041EA94
:100820000B0153465A46084313D0114653EA0100C0
:1008300019D0C8F140025046FFF777FF05460E4633
:10084000504659464246FFF761FF084305D0012054
:1008500004E020463946BDE8F08D0020054346EA15
:10086000E0762C4337430A986305E40AA0EB0800BE
:100870000022FD0A44EA47540A3002D5002001460E
:10088000E9E7010510196941DDE9084500196941E9
:10089000BDE8F04DA2E70000064C074D06E0E06819
:1008A00040F0010394E8070098471034AC42F6D3B7
:1008B000FFF742FC682C0008882C000800BFFEE708
:1008C00070472DE9F0410246002500260020002354
:1008D0000024002791F803C00CF00F0591F803C025
:1008E0000CF0100CBCF1000F03D091F802C04CEAE0
:1008F000050591F800C0BCF1000F31D0146800204C
:100900002BE04FF0010C0CFA00F3B1F800C00CEA38
:1009100003069E4220D183004FF00F0C0CFA03F720
:10092000BC4305FA03FC4CEA040491F803C0BCF193
:10093000280F06D14FF0010C0CFA00FCC2F814C0CD
:100940000AE091F803C0BCF1480F05D14FF0010C4B
:100950000CFA00FCC2F810C0401C0828D1D3146067
:10096000B1F800C0BCF1FF0F34DD546800202EE068
:1009700000F1080C4FF0010808FA0CF3B1F800C0C0
:100980000CEA03069E4221D183004FF00F0C0CFAB3
:1009900003F7BC4305FA03FC4CEA040491F803C0D6
:1009A000BCF1280F05D100F1080C08FA0CF8C2F8C8
:1009B000148091F803C0BCF1480F07D100F1080C76
:1009C0004FF0010808FA0CF8C2F81080401C082803
:1009D000CED35460BDE8F08141617047016170473A
:1009E00010B50024002000F015F93A48006838B925
:1009F000052001F063F83748006860BBE4B22CE0E2
:100A00003448001D006848B9052001F057F8314806
:100A1000001D0068F8B9201DC4B21EE02D48083042
:100A2000006850B9052001F049F82A4808300068EC
:100A300088B904F10800C4B20FE026480C30006801
:100A400050B9052001F03AF822480C30006810B97E
:100A500004F10C00C4B200E00024012000F0DAF838
:100A60001D48006840B9052001F028F81A480068C0
:100A700058BB601CC4B22AE01748001D006848B982
:100A8000052001F01BF81448001D0068E8B9A01CFF
:100A9000C4B21CE010480830006848B9052001F0D5
:100AA0000DF80D480830006878B9E01CC4B20EE0BB
:100AB00009480C30006848B9052000F0FFFF0648DF
:100AC0000C30006808B9201DC4B200E000242046A4
:100AD00010BD000030812142200121422DE9F05F4C
:100AE0008246CAEB4A10FFF75FFD804600220A4BA0
:100AF000FFF7DDFC06460022084BFFF763FC0446C7
:100B0000FFF784FD1FFA80FB59464FF0804000F04C
:100B10001CFDBDE8F09F000000C072400068A040CE
:100B20002DE9F05F82460AEB4A01C1EB4A10FFF75C
:100B30003BFD80460022094BFFF7B9FC0646002228
:100B4000074BFFF73FFC0446FFF760FD1FFA80FBF1
:100B50005946044800F0F9FCBDE8F09F00C072401F
:100B600000009E400004004070B50446002510E0DF
:100B7000605D68B1615D074800F093FE00BF8021B1
:100B8000044800F0C0FD0128F9D1681CC5B200E09E
:100B900070BDEDE70048004000BFFEE708B5012149
:100BA0001C2000F0E9F84FF47060ADF8000003205D
:100BB0008DF8020010208DF8030069460F48FFF7FA
:100BC00080FE4FF47040ADF8000069460C48FFF716
:100BD00078FE01200B4908600B49C1F8B4010949AE
:100BE00008310860091D086008490860091D08608F
:100BF000091D08600649C1F8AC0108BD00080140A4
:100C0000000C0140B081214200802142A00121421C
:100C10000000214238B5044601211C2000F0ACF848
:100C200014B1012C4CD125E04FF47040ADF8000018
:100C300048208DF8030069462248FFF742FE4FF432
:100C40007060ADF8000003208DF8020010208DF8D0
:100C5000030069461C48FFF734FE00201B4908606A
:100C60001B49C1F8A4011949083108601849C1F8A5
:100C7000AC0125E04FF47040ADF8000003208DF882
:100C8000020010208DF8030069460E48FFF719FE98
:100C90004FF47060ADF8000048208DF803006946FD
:100CA0000948FFF70EFE00200A4908600A49C1F80A
:100CB000B4010849083108600749C1F8BC0100BF08
:100CC00000BF38BD000C014000080140A0012142D6
:100CD00000002142B08121420080214200BFFEE796
:100CE0007047000070B5002100230F22C47804B3C0
:100CF000154C246804F4E064C4F5E064210AC1F1F1
:100D00000403CA40447804FA03F184781440214370
:100D100009010E4C0678A155047804F01F05012442
:100D2000AC4005786D11AD0005F1E025C5F8004136
:100D300009E0047804F01F050124AC40044D067856
:100D4000761145F8264070BD0CED00E000E400E0AF
:100D500080E100E07047000029B1064AD2690243F1
:100D6000044BDA6104E0034AD2698243014BDA6141
:100D7000704700000010024029B1064A9269024300
:100D8000044B9A6104E0034A92698243014B9A61E1
:100D9000704700000010024030B5002100220024FE
:100DA00000232D4D6D6805F00C0121B1042905D0FB
:100DB000082923D105E0294D056022E0274D056073
:100DC0001FE0254D6D6805F47012234D6D6805F424
:100DD0008034022505EB92421CB9214D5543056034
:100DE0000BE01D4D6D6805F400351DB11C4D5543DC
:100DF000056002E0194D5543056002E0174D05609E
:100E000000BF00BF144D6D6805F0F0010909154DD4
:100E10006B5C0568DD4045600F4D6D6805F4E06171
:100E2000090A104D6B5C4568DD4085600A4D6D68B0
:100E300005F46051C90A0B4D6B5C4568DD40C56027
:100E4000054D6D6805F44041890B074D6B5CC56825
:100E5000B5FBF3F5056130BD0010024000127A00C9
:100E600000093D005C0000206C000020704710B5B8
:100E700000F002F810BD00000CB5002001900090B9
:100E80003348006840F480303149086000BF304882
:100E9000006800F4003000900198401C0190009818
:100EA00018B90198B0F5A06FF1D12948006800F495
:100EB000003010B10120009001E000200090009867
:100EC000012843D12348006840F010002149086000
:100ED0000846006820F0030008600846006840F0FB
:100EE000020008601A48406819494860084640688E
:100EF00048600846406840F48060486008464068A2
:100F000020F47C1048600846406840F4E8104860CF
:100F10000846006840F08070086000BF0C48006818
:100F200000F000700028F9D00948406820F0030064
:100F3000074948600846406840F00200486000BF2A
:100F40000348406800F00C000828F9D10CBD0000EF
:100F50000010024000200240042808D14FF0E02198
:100F6000096941F004014FF0E022116107E04FF000
:100F7000E021096921F004014FF0E022116170477E
:100F80007047000010B51348006840F00100114997
:100F9000086008464068104908400E494860084605
:100FA00000680E4908400B4908600846006820F4B4
:100FB000802008600846406820F4FE0048604FF436
:100FC0001F008860FFF753FF4FF00060044908607E
:100FD00010BD0000001002400000FFF8FFFFF6FE09
:100FE00008ED00E07FB505460C460121C802FFF779
:100FF000C3FEADF80850ADF804400020ADF80A007B
:10100000ADF8060001A90E4800F0A2FA012211462F
:101010000B4800F031FA19208DF8000001208DF8FE
:10102000010003208DF8020001208DF803006846BE
:10103000FFF758FE0121024800F001FA7FBD0000D1
:10104000002C01402DE9F04F89B00121724800F0D9
:1010500002FA00287ED001216F4800F0EDF96F48B8
:101060000068002877D06D480068401E6B49086012
:101070006B48006840F2E7318842EBD0694800686D
:1010800069490860694800686649086068480068FE
:1010900068490968081A624909680844503865496E
:1010A0000860084600686449096890FBF1F05F49F0
:1010B00008600020614908700EE05D495F480078D3
:1010C000401C51F820005D4A127841F822005B482C
:1010D0000078401C5949087057480068401E57491D
:1010E00009788842E9DC4E4800685038524909685E
:1010F000491E4F4A42F821004C48006803280CDA88
:101100004A48006810F1030F07DD4D48006820B120
:101110004B480068401E4A49086043480068FFF792
:1011200035FA0590474801680598FFF775F807906C
:101130003C480068FFF72AFA0390424801684FF0E4
:101140008040FFF769F801903F4801680198FFF778
:101150000BF801E05DE059E002900399FFF75CF8BD
:10116000059032480068FFF711FA0390374801688C
:1011700035480068FEF7F8FF019032480168019891
:10118000FEF7F2FF02900399FFF746F804900599E5
:10119000FFF73CF806900799FEF7E6FF0890FFF787
:1011A0004EFA804600222A4BFFF781F904460D468D
:1011B00028480068FFF743FA064622462B46FFF709
:1011C0005DF88246FFF766FA224908600846006823
:1011D000FFF735FA044600221F4BFFF743FA03D20C
:1011E0001E481C49086008E000211A480068FFF703
:1011F0006DFA02D200201749086016480068FFF710
:10120000F1F984B22046FFF769FC02E000200C49A6
:10121000086009B0BDE8F08F002C014018000020E4
:1012200000000020340000203800002030000020A2
:10123000BC00002008000020280000202C00002016
:1012400014000020240000201C00002020000020AA
:101250000088C340480000200070B7400080BB45B4
:1012600010B50121880700F0F6F818B101218807B0
:1012700000F0E2F810BD000030B589B005460C461C
:1012800001210846FFF768FD01210520FFF774FDE5
:101290000220ADF8200018208DF8230003208DF8DF
:1012A000220008A91448FFF70CFBADF81850ADF860
:1012B00014400020ADF81A00ADF8160005A94FF053
:1012C000804000F045F96020ADF804000120ADF841
:1012D00006000020ADF80C0001A94FF0804000F09E
:1012E000D5F80821C80600F023F90121880700F08D
:1012F000A6F809B030BD00000008014010B501217A
:10130000044800F0A8F818B10121024800F094F850
:1013100010BD00000004004030B589B005460C4601
:1013200001210220FFF718FD01210520FFF724FD10
:101330008020ADF8200018208DF8230003208DF8C0
:10134000220008A91348FFF7BCFAADF81850ADF811
:1013500014400020ADF81A00ADF8160005A90E489B
:1013600000F0F6F86020ADF804000120ADF80600AA
:101370000020ADF80C0001A9074800F087F808210B
:10138000054800F0D5F80121034800F058F809B0ED
:1013900030BD0000000801400004004010B50121EC
:1013A0000A4800F058F880B10121084800F044F8DC
:1013B0000748006820B920210648FFF70DFB04E02C
:1013C00003480068401E0249086010BD0008004044
:1013D00010000020000801407FB505460C460121A1
:1013E0000420FFF7B9FCADF80850ADF80440002028
:1013F000ADF80A00ADF8060001A90E4800F0A8F803
:10140000012211460B4800F037F81E208DF800002D
:1014100000208DF8010003208DF8020001208DF8D6
:1014200003006846FFF75EFC0121024800F007F860
:101430007FBD000000080040CA430282704721B10E
:10144000028842F00102028004E002884FF6FE7337
:101450001A400280704730B5024600200023002465
:10146000158A05EA0103958905EA010413B10CB157
:10147000012000E0002030BD1AB183890B43838135
:1014800002E083898B4383817047000070B500249C
:1014900000220023058C4FF6EF7635400584028C40
:1014A0008388048B48F6FF752C404FF6FF452C408F
:1014B0000D884FF6FF7606EA05252C434FF6DF75BB
:1014C0002A400D8906EA05152A434D8806EA0515C6
:1014D0002A43154DA84202D0144DA8421DD14FF603
:1014E0007F752A404D894FF6FF7606EA05152A4397
:1014F0004FF6BF752A408D8806EA05152A434FF638
:10150000FF352B404FF2FF752B408D8906EA85058C
:101510002B43CD8906EA85052B4383800483CD8840
:101520000587028470BD0000002C0140003401409A
:101530000A460021018B4FF2FF7319404FF6FF73EB
:1015400003EA0223194301837047018770470000B3
:10155000002202881D4B98420ED01D4B98420BD0A2
:10156000B0F1804F08D01B4B984205D01A4B9842DF
:1015700002D01A4B984204D14FF68F731A404B8811
:101580001A43174B984207D0164B984204D04FF697
:10159000FF431A40CB881A4302808B8883850B88CF
:1015A00003850A4B98420BD0094B984208D00E4B4A
:1015B000984205D00D4B984202D00D4B984201D174
:1015C0000B7A03860123838270470000002C0140C0
:1015D000003401400004004000080040000C0040BE
:1015E0000010004000140040004001400044014051
:1015F0000048014010B540F22551344800F090F801
:10160000002862D0314800F047F9C4B25B2C02D107
:1016100001202F4908702E480078012855D15B2CF5
:1016200053D05D2C09D02B482B49097844542A48C3
:101630000078401C2849087047E0002027490880AE
:101640002749087011E0234825490978405C303863
:101650002249098801EB810100EB41001F49088004
:101660001F480078401C1E4908701D480078032858
:10167000E9DB1A4800881B490860002017490880E8
:1016800004201749087011E0124815490978405C98
:1016900030381249098801EB810100EB41000F4904
:1016A00008800F480078401C0D4908700C480078ED
:1016B0000728E9DB094800880B4908600020044935
:1016C0000870064908800449087010BD00440040B5
:1016D000500000205C010020520000205400002037
:1016E000510000200000002004000020704721B1BC
:1016F000828942F40052828104E082894DF6FF73B0
:101700001A408281704702460020B1F5007F00D167
:1017100000BF13880B400BB1012000E00020704790
:1017200070B50246002400230025002040F66A160A
:10173000B14200D100BFC1F3421501F01F030126E1
:1017400006FA03F3012D02D19689334006E0022DFB
:1017500002D1168A334001E0968A33400C120126EA
:1017600006FA04F41688344013B10CB1012000E0ED
:10177000002070BDF0B5034600240026002500209F
:1017800040F66A17B94200D100BF1846C1F34214AF
:1017900001F01F06012707FA06F5012C01D10C30D4
:1017A00004E0022C01D1103000E014301AB10768B7
:1017B0002F43076002E00768AF430760F0BD0000F9
:1017C0002DE9F04786B005460E460024A24600BF2C
:1017D000A1460027B08900B100BF2F462C8A4CF6E5
:1017E000FF700440F08804432C82AC894EF6F3105D
:1017F0000440B08831890843718908430443AC81AF
:10180000AC8A4FF6FF400440B0890443AC8201A883
:10181000FFF7C2FA1F48874202D1DDF810A001E0AD
:10182000DDF80CA0A88900F4004040B10AEBCA0022
:1018300000EB0A1031684900B0FBF1F807E00AEB51
:10184000CA0000EB0A1031688900B0FBF1F864208F
:10185000B8FBF0F004012009642101FB1089A8897C
:1018600000F4004040B1322000EBC900B0FBF1F0C1
:1018700000F00700044308E0322000EB0910642167
:10188000B0FBF1F000F00F0004432C8106B0BDE87E
:10189000F08700000038014001468888C0F3080046
:1018A0007047C1F308028280704700BFFEE7000066
:1018B0000FB4054B10B503A9044A029800F02CF8A8
:1018C00010BC5DF814FB00003D1B00085800002010
:1018D0000FB4084B10B504A902AA039800F01CF835
:1018E000044602A9002000F0C1F8204610BC5DF8B3
:1018F00014FB00006D1A000802E008C8121F08C19E
:10190000002AFAD170477047002001E001C1121F80
:10191000002AFBD1704700002DE9FF4F89B09B469C
:101920000446002506E025280BD05A460B9990471F
:10193000641C6D1C20780028F5D10DB02846BDE848
:10194000F08F0027B8460122474900E0074314F80A
:10195000013F203B02FA03F00842F7D120782E28FD
:1019600019D114F8010F47F004072A280ED06FF0A0
:101970002F022078A0F1300109290CD808EB88014A
:1019800002EB410100EB0108641CF2E70A98641CB9
:1019900050F8048B0A9020780028CED0642808D014
:1019A000692806D075281ED05A460B9990476D1CA1
:1019B00058E00A994FF00A0901C90A91002802DA91
:1019C00040422D2102E0390504D52B218DF820104D
:1019D000012103E0F90704D02021F7E78A4608AE89
:1019E0000DE00021FAE70A994FF00A0901C90A91AE
:1019F000F7E74946FEF774FE303106F8011D00286E
:101A0000F7D1ADEB060000F12009780701D44FF0C3
:101A10000108C84502DDA8EB090000E0002080466F
:101A2000002706E008A85A46C05D0B9990476D1C38
:101A30007F1C5745F6DB04E030205A460B9990474F
:101A40006D1CB8F10001A8F10108F5DC05E016F8FD
:101A5000010B5A460B9990476D1CB9F10001A9F191
:101A60000109F4DC641C65E7092801000A68531CBD
:101A70000B6010707047000010B56FF00400FFF7A6
:101A80006BFA0A4800680A49B0FBF1F0094908708E
:101A90000846007800EB4001C1EBC0104FF6FF7123
:101AA00001EAC0000449088010BD00007000002059
:101AB00000127A0084000020860000200146114AAE
:101AC00012884A434FF0E0235A6100229A611A4675
:101AD000126942F001021A6100BF4FF0E022106962
:101AE00000F001021AB100F48032002AF5D04FF064
:101AF000E022126922F001024FF0E0231A61002275
:101B00009A6170478600002008B501210420FFF784
:101B100033F96020ADF8000010208DF80300032099
:101B20008DF8020069460448FEF7CBFE60210248AA
:101B3000FEF752FF08BD00000008014000BF054A43
:101B4000128802F04002002AF9D0C2B2014B1B1DDC
:101B50001A807047004800402DE9F04106460025F4
:101B6000002700BF5DE000BFFEF73AFF0028FBD072
:101B7000FEF736FF0446052C03D0062C01D0072CB7
:101B800002D1601EC4B20BE0092C03D00A2C01D094
:101B90000B2C02D1A01EC4B202E00E2C00D10024F6
:101BA00007EB870004EB4007BEB9032D0ADA05EB0B
:101BB0004500800000F1500223461CA12148FFF798
:101BC00087FE21E005EB4500800000F15C02234622
:101BD00016A11C48FFF77CFE16E0022D0ADA05EB81
:101BE0004500800000F15C02234617A11548FFF76D
:101BF0006FFE09E005EB4500800000F16802234616
:101C000011A11048FFF764FE0E48FEF7ADFF6420F7
:101C1000FFF754FF00BFFEF7E3FE0028FBD1681C6E
:101C2000C5B2042D9FDB3846BDE8F0814453333202
:101C30002825642C3231382C272564272C31293B68
:101C40000D0A000088000020445333322825642CFC
:101C50003235322C272564272C31293B0D0A000010
:101C60009AB04FF0000B4FF001090025AA46FFF78C
:101C700003FF472144F61F60FFF74EFB472144F660
:101C80001F60FFF7F9FA00F031FE00F081FEFFF768
:101C90003BFFFEF783FF40F6B830FEF71FFF002042
:101CA000FEF73EFFFEE3FEA0FFF702FE4FF47A7060
:101CB000FFF704FF00BFFEF793FE0028FBD0FEF7FE
:101CC0008FFE834600BFFEF78BFE0028FBD1BBF1E1
:101CD000070F7CD2DFE81BF07B000700E100EE027B
:101CE0007B008C04E405F4A0FEF73EFF6420FFF7C0
:101CF000E5FE0020FFF730FF05460A20B5FBF0F7B0
:101D00003A46FDA117A8FFF7E3FD0A20B5FBF0F165
:101D100000FB11573A46F8A114A8FFF7D9FD00BF00
:101D2000FEF75EFE0028FBD0FEF75AFE064600BF17
:101D3000FEF756FE0028FBD1102E78D1EFA0FEF75B
:101D400013FF6420FFF7BAFEF2A0FEF70DFF642038
:101D5000FFF7B4FE40F6B830FEF7C0FE4FF4FA606D
:101D6000FEF7DEFE2021F248FEF738FE2846FEF799
:101D70002CFC0022EF4BCDE90401FEF726FB0746C1
:101D8000ED4AEE4BFEF721FBCDE908012846FEF7B0
:101D90001CFC07460022E74BFEF717FBCDE90401C8
:101DA0002846FEF712FC07460022E24BFEF70DFB29
:101DB000E34AE44BCDE90001FEF707FBCDE9020160
:101DC000DDE90423FEF701FBCDE9060100E0FCE3B9
:101DD000DDE90823FEF7F3FADB4ADC4BCDE90A0123
:101DE000FEF74CFACDE90C01FEF710FCD84908606B
:101DF000472140F2E730FFF7EFFA00BFD448006810
:101E00000028FBD12021CA48FEF7E6FD0021D14879
:101E1000FFF715FBD0A0FEF7A7FEDAA0FEF7A4FEA1
:101E200017A8FEF7A1FEB9A0FEF79EFE00E033E082
:101E3000D8A0FEF799FEDDA0FEF796FE14A8FEF7E7
:101E400093FEB2A0FEF790FEDCA0FEF78DFE6420AC
:101E5000FFF734FE4021B648FEF7C0FD2820FFF70B
:101E60002DFE4021B248FEF7B7FD4FF4FA70FFF7A0
:101E700025FE4021AE48FEF7B1FD4FF4FA70FFF7A2
:101E80001DFE4021AA48FEF7A7FD40F6B830FEF738
:101E900025FE0020FEF744FE0BE2D448FEF764FE68
:101EA0006420FFF70BFE0020FFF756FE05460A20D0
:101EB000B5FBF0F73A4690A117A8FFF709FD0A20F5
:101EC000B5FBF0F100FB11573A468BA114A8FFF7C0
:101ED000FFFC00BFFEF784FD0028FBD0FEF780FD6D
:101EE000064600BFFEF77CFD0028FBD1102E7DD1F9
:101EF000BFA0FEF739FE6420FFF7E0FD0120FFF7E9
:101F00002BFE82466420BAFBF0F73A467AA111A86C
:101F1000FFF7DEFC6420BAFBF0F100FB11A73A46A4
:101F200075A10EA8FFF7D4FC00BFFEF759FD0028ED
:101F3000FBD0FEF755FD064600BFFEF751FD002819
:101F4000FBD1102ED3D1B0A0FEF70EFE6420FFF718
:101F5000B5FD1FFA8AF0FEF7C1FD4FF4FA60FEF7F7
:101F6000DFFD6CA0FEF700FE6420FFF7A7FD202137
:101F70006F48FEF733FD2846FEF727FB00226D4B26
:101F8000CDE90401FEF721FA07466B4A6B4BFEF7D9
:101F90001CFACDE908012846FEF717FB0746002288
:101FA000644BFEF712FACDE904012846FEF70DFB5B
:101FB000074600225F4BFEF708FA614A614BCDE904
:101FC0000001FEF702FACDE90201DDE90423FEF784
:101FD000FCF9CDE90601DDE90823FEF7F0F95A4ADC
:101FE0005A4BCDE90A01FEF749F900E061E1CDE97C
:101FF0000C01FEF70BFB56490860472140F2E73021
:10200000FFF7EAF900BF524800680028FBD1002121
:102010005048FFF714FA20214548FEF7DDFC80A068
:10202000FEF7A2FD57A0FEF79FFD17A8FEF79CFD47
:1020300036A0FEF799FD57A0FEF796FD5BA0FEF7D0
:1020400093FD14A8FEF790FD30A0FEF78DFD7FA054
:10205000FEF78AFD11A8FEF787FD2CA0FEF784FD90
:102060007EA0FEF781FD83A0FEF77EFD0EA8FEF7A1
:102070007BFD26A0FEF778FD8248FEF775FD642003
:10208000FFF71CFD40212A48FEF7A8FC2820FFF797
:1020900015FD40212648FEF79FFC4FF4FA70F3E04F
:1020A000434C532830293B50494328302C302C31A5
:1020B000293B0D0A00000000434C532830293B50B7
:1020C000494328302C302C32293B534343283336A4
:1020D0002C3635353335293B534243283336293B9B
:1020E00044533332283131362C3231382C272E27C5
:1020F0002C31293B0D0A0000256400004453333283
:10210000283230302C3231382C27A1CC272C3129E1
:102110003B0000004147494628302C34302C3830F1
:102120002C372C31342C31302C31293B0D0A000056
:10213000000801400000F03FD0D556EC2FBBD33F44
:102140007BFC3960B24C3A3FCDCCCCCCCCAC5D40C2
:102150001000002000080040434C532830293B5019
:10216000494328302C302C32293B53434328333603
:102170002C3635353335293B534243283336293BFA
:1021800000000000445333322838302C3231382CD0
:102190002700000044533332283131362C32313895
:1021A0002C272E272C31293B0000000044533332CA
:1021B000283132382C3231382C2700004453333246
:1021C000283230302C3231382C27A1CC272C312921
:1021D0003B445334382834302C38302C2746696E31
:1021E00069736821272C31293B0D0A00802A0008D9
:1021F00044533332283230302C3231382C27A1CCA2
:10220000272C31293B0D0A00445333322832303019
:102210002C3235322C27A1CC272C31293B0D0A003A
:10222000434C532830293B50494328302C302C3321
:10223000293B5343432833362C3635353335293B38
:10224000534243283336293B0000000044533332C5
:102250002839322C3235322C2700000044533332D7
:10226000283131362C3235322C272E272C31293B80
:102270000000000044533332283132382C323532DA
:102280002C270000382A0008FFF718FC4021FD48E1
:10229000FEF7A4FB4FF4FA70FFF710FC4021F94859
:1022A000FEF79AFB40F6B830FEF718FC0020FEF768
:1022B00037FCF7E2F448FEF757FC6420FFF7FEFB1B
:1022C00000BFFEF78DFB0028FBD0FEF789FB06461A
:1022D00000BFFEF785FB0028FBD1102E66D1EB482E
:1022E000FEF742FC6420FFF7E9FB0020FEF7F6FB57
:1022F0000020FEF715FC4FF4FA70FFF7DFFB002417
:102300004FF0010942F21070E14908601EE0B9F196
:10231000010F0FD104F1140084B22046FEF7DEFB5A
:1023200041F27070844201D14FF000092820FFF77C
:10233000C5FB0BE0A4F1140084B22046FEF7CEFBEF
:102340000CB94FF001092820FFF7B8FBD14800680D
:1023500040F2E7318842DAD02046FEF720F9CE4934
:102360000860CE48FFF7A4FA49F64040CC4908601F
:1023700047216320FEF736FE0BE0CA480368C848D1
:102380000268C9480168C9A0FFF792FA6420FFF704
:1023900095FBBF4800680028EFD10021C648FFF731
:1023A0004EF84FF4FA60FEF7BBFB00E01FE1C3A05C
:1023B000FEF7DAFB6420FFF781FB2021B148FEF72E
:1023C0000DFB0020CA49086000250AE0C8480068E3
:1023D000B44909680844C64908600A20FFF76EFB43
:1023E0006D1C142DF2D3C24800681421B0FBF1F02B
:1023F000BF49086008460068FEF7E7F80746002274
:10240000BC4BFDF7E2FF4FF03332BB4BCDE904018B
:10241000FDF7DBFFCDE90801B5480068FEF7D5F808
:1024200007460022B34BFDF7D0FFCDE90401B048C9
:102430000068FEF7CAF807460022AE4BFDF7C5FF5D
:10244000AE4AAF4BCDE90001FDF7BFFFCDE9020178
:10245000DDE90423FDF7B9FFCDE90601DDE9082335
:10246000FDF7ADFF0022A74BCDE90A01FDF706FFFE
:10247000CDE90C01FEF7CAF89D49086008460068DE
:10248000FEF7A3F8074600229A4BFDF79EFF9E4AEF
:102490009E4BCDE90401FDF798FFCDE90801944872
:1024A000006800E0FFE1FEF790F807460022914B3C
:1024B000FDF78BFFCDE904018D480068FEF785F834
:1024C000074600228B4BFDF780FF914A914BCDE9E7
:1024D0000001FDF77AFFCDE90201DDE90423FDF7F4
:1024E00074FFCDE90601DDE90823FDF768FF8A4A9C
:1024F0008A4BCDE90A01FDF7C1FECDE90C01FEF7DB
:1025000085F8C8387A490860472140F2E730FEF77D
:1025100063FF00BF764800680028FBD10021804897
:10252000FEF78DFF20215748FEF756FA7DA0FEF7F3
:102530001BFBAFF2B030FEF717FB17A8FEF714FB3A
:10254000AFF23840FEF710FBAFF2B830FEF70CFBED
:10255000AFF2A830FEF708FB14A8FEF705FBAFF2B8
:102560005440FEF701FBAFF21C30FEF7FDFA11A854
:10257000FEF7FAFAAFF26C40FEF7F6FAAFF224304B
:10258000FEF7F2FAAFF21430FEF7EEFA0EA8FEF7FD
:10259000EBFAAFF28840FEF7E7FA6D48FEF7E4FA8F
:1025A0006420FFF78BFA40213648FEF717FA2820FF
:1025B000FFF784FA40213348FEF70EFA4FF4FA7021
:1025C000FFF77CFA40212F4800E06AE1FEF706FAA7
:1025D0004FF4FA70FFF772FA40212A48FEF7FCF92F
:1025E00040F6B830FEF77AFA0020FEF799FA59E182
:1025F0005848FEF7B9FA5848FEF7B6FA6420FFF7D4
:102600005DFA20211F48FEF7E9F94FF4E8603849E8
:102610000860472140F2E730FEF7DEFE00BFFEF71C
:10262000DFF90028FBD0FEF7DBF9064600BFFEF716
:10263000D7F90028FBD1102E23D11448FEF794FAC5
:102640006420FFF73BFA0020FEF748FA0020FEF76F
:1026500067FA4FF4FA70FFF731FA06244FF00109D8
:10266000EBE0B9F1010F7DD1A01D84B22046FEF749
:1026700035FA41F27070844201D14FF00009042014
:102680006DE0F9E000080140D42A0008742B00082E
:10269000140000200000002048000020282B000823
:1026A00018000020040000203000002025642C25A4
:1026B000642C25640D0A0000002C0140424F58464E
:1026C0002834302C39302C3133362C3134302C3105
:1026D00035293B4147494628302C34302C38302CA2
:1026E000372C31342C31302C31293B0D0A000000BD
:1026F000100000200000F03F33337840B6F3FDD4E3
:1027000078E9194000B7BC40D0D556EC2FBBD33F79
:102710007BFC3960B24C3A3FCDCCCCCCCCAC5D40EC
:1027200000080040434C532830293B50494328308F
:102730002C302C34293B5343432833362C36353543
:102740003335293B534243283336293B00000000F0
:10275000382A0008142C0008C02B000802E0FFF7FC
:10276000ADF907E0A01F84B22046FEF7B7F90420B8
:10277000FFF7A4F94D480068502809DD4B48006870
:10278000A02805DA4A48006810B9B9F1010F0ED047
:1027900046480068002850DD4448006850284CDA5C
:1027A00043480068002848D1B9F1000F45D1AFF285
:1027B0008C00FEF7D9F9AFF26C50FEF7D5F911A8ED
:1027C000FEF7D2F9AFF2BC60FEF7CEF9AFF274506B
:1027D000FEF7CAF9AFF26450FEF7C6F90EA8FEF78D
:1027E000C3F9AFF2D860FEF7BFF932A0FEF7BCF92B
:1027F0006420FFF763F94FF4FA60FEF791F94FF4A4
:10280000FA70FFF75BF940213648FEF7E7F814202D
:10281000FFF754F940213348FEF7DEF84FF4FA7021
:10282000FFF74CF90020FEF77BF900212E48FEF758
:1028300006FE01201E49086000E012E700BF19E013
:10284000B9F1010F0ED1A01D84B22046FEF746F962
:1028500041F27070844201D14FF000090420FFF76B
:102860002DF907E0A01F84B22046FEF737F90420B7
:10287000FFF724F9002CE3D140211A48FEF7AEF807
:102880004FF4FA70FFF71AF940211648FEF7A4F842
:1028900040F6B830FEF722F90020FEF741F901E0DA
:1028A00000E000BF00BFFFF7FEB9000000000020FD
:1028B0001000002044533332283230302C3235326D
:1028C0002C27A1CC272C31293B44533438283430D1
:1028D0002C38302C2746696E69736821272C3129E2
:1028E0003B0D0A00000801400008004000B587B019
:1028F00001214804FEF730FA01210420FEF73CFADA
:102900000420ADF8180003208DF81A0018208DF867
:102910001B0006A91C48FDF7D4FF0820ADF81800DD
:1029200004208DF81B0006A91748FDF7CAFF2620D2
:102930008DF8040003208DF805008DF806000120B5
:102940008DF8070001A8FEF7CDF94FF4165002905C
:102950000020ADF80C00ADF80E00ADF81000ADF899
:1029600014000C20ADF8120002A90848FEF728FF59
:10297000012240F225510548FEF7FCFE01210348E3
:10298000FEF7B5FE07B000BD00080140004400405E
:1029900000B587B001218804FEF7DEF90121082087
:1029A000FEF7EAF94FF48060ADF8180003208DF8C7
:1029B0001A0018208DF81B0006A91D48FDF781FF9D
:1029C0004FF40060ADF8180004208DF81B0006A934
:1029D0001748FDF776FF27208DF8040003208DF8B7
:1029E00005008DF8060001208DF8070001A8FEF70C
:1029F00079F94FF4E13002900020ADF80C00ADF809
:102A00000E00ADF81000ADF814000C20ADF8120067
:102A100002A90848FEF7D4FE012240F225510548DC
:102A2000FEF7A8FE01210348FEF761FE07B000BDD6
:102A3000000C01400048004044533332283230300B
:102A40002C3231382C27A1CC272C31293B4453334D
:102A500032283230302C3235322C27A1CC272C3181
:102A6000293B445334382834302C38302C274669DD
:102A70006E69736821272C31293B0D0A0000000084
:102A8000434C532830293B50494328302C302C33B9
:102A9000293B5343432833362C3635353335293BD0
:102AA000534243283336293B44533332283131369D
:102AB0002C3231382C272E272C31293B44533332EA
:102AC000283131362C3235322C272E272C31293B18
:102AD0000D0A0000434C532830293B50494328300D
:102AE0002C302C34293B5343432833362C36353590
:102AF0003335293B534243283336293B4453333241
:102B0000283131362C3231382C272E272C31293BD5
:102B100044533332283131362C3235322C272E278C
:102B20002C31293B0D0A0000424F58462834302CE6
:102B300039302C3133362C3134302C3135293B446B
:102B40005332342834302C39302C27D5FDD4DAC315
:102B5000E9D7BC272C31293B445333322834302C5D
:102B60003131302C272E2E2E2E2E2E272C31293B84
:102B70000D0A0000424F58462834302C39302C3191
:102B800033362C3134302C3135293B445332342800
:102B900034302C39302C27CBD1D1B0C4BFB1EA2787
:102BA0002C31293B445333322834302C3131302CF2
:102BB000272E2E2E2E2E2E272C31293B0D0A0000DB
:102BC000445333322838302C3231382C2732272CDA
:102BD00031293B445333322839322C3231382C27B7
:102BE00035272C31293B44533332283130342C32B1
:102BF00031382C2730272C31293B445333322831AC
:102C000032382C3231382C2730272C31293B0D0A11
:102C100000000000434C532830293B5049432830E2
:102C20002C302C35293B5343432833362C3635354D
:102C30003335293B534243283336293B44533332FF
:102C4000283131362C3231382C272E272C31293B94
:102C500044533332283131362C3235322C272E274B
:102C60002C31293B00000000882C000800000020C7
:102C700088000000F8180008102D000888000020C7
:102C8000F804000008190008E70300000100000034
:102C900000000000000000000000000010270000FD
:102CA000000000000000C842000070410000000069
:102CB0001400000000000000000000000000000000
:102CC0000000000000000000000000000000000004
:102CD00000000000000000000000000000000000F4
:102CE00000000000000000000102030401020304D0
:102CF000060708090204060800A24A0400000000B2
:102D0000000000000102030406070809000000009B
:0400000508000131BD
:00000001FF
